{
  "contractName": "BookShop",
  "abi": [
    {
      "inputs": [
        {
          "internalType": "contract OpenBooks",
          "name": "_openBooks",
          "type": "address"
        }
      ],
      "stateMutability": "nonpayable",
      "type": "constructor"
    },
    {
      "anonymous": false,
      "inputs": [
        {
          "indexed": true,
          "internalType": "address",
          "name": "owner",
          "type": "address"
        },
        {
          "indexed": true,
          "internalType": "address",
          "name": "buyer",
          "type": "address"
        },
        {
          "indexed": true,
          "internalType": "uint256",
          "name": "bookId",
          "type": "uint256"
        },
        {
          "indexed": false,
          "internalType": "uint256",
          "name": "price",
          "type": "uint256"
        }
      ],
      "name": "Buy",
      "type": "event"
    },
    {
      "anonymous": false,
      "inputs": [
        {
          "indexed": true,
          "internalType": "address",
          "name": "owner",
          "type": "address"
        },
        {
          "indexed": true,
          "internalType": "uint256",
          "name": "bookId",
          "type": "uint256"
        }
      ],
      "name": "DeList",
      "type": "event"
    },
    {
      "anonymous": false,
      "inputs": [
        {
          "indexed": true,
          "internalType": "address",
          "name": "owner",
          "type": "address"
        },
        {
          "indexed": true,
          "internalType": "uint256",
          "name": "bookId",
          "type": "uint256"
        },
        {
          "indexed": false,
          "internalType": "uint256",
          "name": "price",
          "type": "uint256"
        }
      ],
      "name": "List",
      "type": "event"
    },
    {
      "anonymous": false,
      "inputs": [
        {
          "indexed": true,
          "internalType": "address",
          "name": "previousOwner",
          "type": "address"
        },
        {
          "indexed": true,
          "internalType": "address",
          "name": "newOwner",
          "type": "address"
        }
      ],
      "name": "OwnershipTransferred",
      "type": "event"
    },
    {
      "anonymous": false,
      "inputs": [
        {
          "indexed": true,
          "internalType": "address",
          "name": "sender",
          "type": "address"
        },
        {
          "indexed": true,
          "internalType": "uint256",
          "name": "amount",
          "type": "uint256"
        }
      ],
      "name": "Withdraw",
      "type": "event"
    },
    {
      "inputs": [
        {
          "internalType": "address",
          "name": "",
          "type": "address"
        }
      ],
      "name": "balances",
      "outputs": [
        {
          "internalType": "uint256",
          "name": "",
          "type": "uint256"
        }
      ],
      "stateMutability": "view",
      "type": "function",
      "constant": true
    },
    {
      "inputs": [],
      "name": "owner",
      "outputs": [
        {
          "internalType": "address",
          "name": "",
          "type": "address"
        }
      ],
      "stateMutability": "view",
      "type": "function",
      "constant": true
    },
    {
      "inputs": [],
      "name": "renounceOwnership",
      "outputs": [],
      "stateMutability": "nonpayable",
      "type": "function"
    },
    {
      "inputs": [
        {
          "internalType": "address",
          "name": "newOwner",
          "type": "address"
        }
      ],
      "name": "transferOwnership",
      "outputs": [],
      "stateMutability": "nonpayable",
      "type": "function"
    },
    {
      "inputs": [],
      "name": "getOpenBooks",
      "outputs": [
        {
          "internalType": "address",
          "name": "",
          "type": "address"
        }
      ],
      "stateMutability": "view",
      "type": "function",
      "constant": true
    },
    {
      "inputs": [
        {
          "internalType": "uint256",
          "name": "_bookId",
          "type": "uint256"
        },
        {
          "internalType": "uint256",
          "name": "_price",
          "type": "uint256"
        }
      ],
      "name": "list",
      "outputs": [],
      "stateMutability": "nonpayable",
      "type": "function"
    },
    {
      "inputs": [
        {
          "internalType": "uint256",
          "name": "_bookId",
          "type": "uint256"
        }
      ],
      "name": "deList",
      "outputs": [],
      "stateMutability": "nonpayable",
      "type": "function"
    },
    {
      "inputs": [
        {
          "internalType": "uint256",
          "name": "_bookId",
          "type": "uint256"
        }
      ],
      "name": "buy",
      "outputs": [],
      "stateMutability": "payable",
      "type": "function",
      "payable": true
    },
    {
      "inputs": [],
      "name": "withdraw",
      "outputs": [],
      "stateMutability": "nonpayable",
      "type": "function"
    },
    {
      "inputs": [
        {
          "internalType": "uint256",
          "name": "_bookId",
          "type": "uint256"
        }
      ],
      "name": "getPrice",
      "outputs": [
        {
          "internalType": "uint256",
          "name": "price",
          "type": "uint256"
        }
      ],
      "stateMutability": "view",
      "type": "function",
      "constant": true
    },
    {
      "inputs": [
        {
          "internalType": "uint256[]",
          "name": "_bookIds",
          "type": "uint256[]"
        }
      ],
      "name": "getPrices",
      "outputs": [
        {
          "internalType": "uint256[]",
          "name": "bookPrices",
          "type": "uint256[]"
        }
      ],
      "stateMutability": "view",
      "type": "function",
      "constant": true
    },
    {
      "inputs": [
        {
          "internalType": "uint256[]",
          "name": "_bookIds",
          "type": "uint256[]"
        }
      ],
      "name": "getBookURIs",
      "outputs": [
        {
          "internalType": "string",
          "name": "URIs",
          "type": "string"
        }
      ],
      "stateMutability": "view",
      "type": "function",
      "constant": true
    },
    {
      "inputs": [
        {
          "internalType": "uint256",
          "name": "_bookId",
          "type": "uint256"
        }
      ],
      "name": "getBookInfo",
      "outputs": [
        {
          "internalType": "string",
          "name": "URI",
          "type": "string"
        },
        {
          "internalType": "uint256",
          "name": "price",
          "type": "uint256"
        }
      ],
      "stateMutability": "view",
      "type": "function",
      "constant": true
    },
    {
      "inputs": [
        {
          "internalType": "uint256[]",
          "name": "_bookIds",
          "type": "uint256[]"
        }
      ],
      "name": "getBooksInfo",
      "outputs": [
        {
          "internalType": "uint256[]",
          "name": "bookPrices",
          "type": "uint256[]"
        },
        {
          "internalType": "string",
          "name": "URIs",
          "type": "string"
        }
      ],
      "stateMutability": "view",
      "type": "function",
      "constant": true
    },
    {
      "inputs": [
        {
          "internalType": "address",
          "name": "_address",
          "type": "address"
        }
      ],
      "name": "getBooks",
      "outputs": [
        {
          "internalType": "uint256[]",
          "name": "bookIds",
          "type": "uint256[]"
        },
        {
          "internalType": "uint256[]",
          "name": "bookPrices",
          "type": "uint256[]"
        },
        {
          "internalType": "string",
          "name": "URIs",
          "type": "string"
        }
      ],
      "stateMutability": "view",
      "type": "function",
      "constant": true
    },
    {
      "inputs": [],
      "name": "getAllBooksOnSale",
      "outputs": [
        {
          "internalType": "uint256[]",
          "name": "bookIds",
          "type": "uint256[]"
        },
        {
          "internalType": "uint256[]",
          "name": "bookPrices",
          "type": "uint256[]"
        },
        {
          "internalType": "string",
          "name": "URIs",
          "type": "string"
        }
      ],
      "stateMutability": "view",
      "type": "function",
      "constant": true
    }
  ],
  "bytecode": "0x60806040523480156200001157600080fd5b5060405162002e7638038062002e76833981810160405260208110156200003757600080fd5b810190808051906020019092919050505060006200005a6200017b60201b60201c565b9050806000806101000a81548173ffffffffffffffffffffffffffffffffffffffff021916908373ffffffffffffffffffffffffffffffffffffffff1602179055508073ffffffffffffffffffffffffffffffffffffffff16600073ffffffffffffffffffffffffffffffffffffffff167f8be0079c531659141344cd1fd0a4f28419497f9722a3daafe3b4186f6b6457e060405160405180910390a350600073ffffffffffffffffffffffffffffffffffffffff168173ffffffffffffffffffffffffffffffffffffffff1614156200013357600080fd5b80600160006101000a81548173ffffffffffffffffffffffffffffffffffffffff021916908373ffffffffffffffffffffffffffffffffffffffff1602179055505062000183565b600033905090565b612ce380620001936000396000f3fe6080604052600436106100f35760003560e01c8063715018a61161008a578063cff9f04411610059578063cff9f0441461081a578063d96a094a146109a0578063e7572230146109ce578063f2fde38b14610a1d576100f3565b8063715018a6146106275780638140a0671461063e5780638a677333146107985780638da5cb5b146107d9576100f3565b80633ccfd60b116100c65780633ccfd60b146104d557806343be2d03146104ec57806350fd73671461052757806357a268471461056c576100f3565b806309cb3a4e146100f85780630bfda58f1461021257806320cf53b81461035057806327e235e314610470575b600080fd5b34801561010457600080fd5b506101bb6004803603602081101561011b57600080fd5b810190808035906020019064010000000081111561013857600080fd5b82018360208201111561014a57600080fd5b8035906020019184602083028401116401000000008311171561016c57600080fd5b919080806020026020016040519081016040528093929190818152602001838360200280828437600081840152601f19601f820116905080830192505050505050509192919290505050610a6e565b6040518080602001828103825283818151815260200191508051906020019060200280838360005b838110156101fe5780820151818401526020810190506101e3565b505050509050019250505060405180910390f35b34801561021e57600080fd5b506102d56004803603602081101561023557600080fd5b810190808035906020019064010000000081111561025257600080fd5b82018360208201111561026457600080fd5b8035906020019184602083028401116401000000008311171561028657600080fd5b919080806020026020016040519081016040528093929190818152602001838360200280828437600081840152601f19601f820116905080830192505050505050509192919290505050610c0b565b6040518080602001828103825283818151815260200191508051906020019080838360005b838110156103155780820151818401526020810190506102fa565b50505050905090810190601f1680156103425780820380516001836020036101000a031916815260200191505b509250505060405180910390f35b34801561035c57600080fd5b50610365610e92565b60405180806020018060200180602001848103845287818151815260200191508051906020019060200280838360005b838110156103b0578082015181840152602081019050610395565b50505050905001848103835286818151815260200191508051906020019060200280838360005b838110156103f25780820151818401526020810190506103d7565b50505050905001848103825285818151815260200191508051906020019080838360005b83811015610431578082015181840152602081019050610416565b50505050905090810190601f16801561045e5780820380516001836020036101000a031916815260200191505b50965050505050505060405180910390f35b34801561047c57600080fd5b506104bf6004803603602081101561049357600080fd5b81019080803573ffffffffffffffffffffffffffffffffffffffff1690602001909291905050506113a4565b6040518082815260200191505060405180910390f35b3480156104e157600080fd5b506104ea6113bc565b005b3480156104f857600080fd5b506105256004803603602081101561050f57600080fd5b810190808035906020019092919050505061150d565b005b34801561053357600080fd5b5061056a6004803603604081101561054a57600080fd5b81019080803590602001909291908035906020019092919050505061174f565b005b34801561057857600080fd5b506105a56004803603602081101561058f57600080fd5b81019080803590602001909291905050506118b4565b6040518080602001838152602001828103825284818151815260200191508051906020019080838360005b838110156105eb5780820151818401526020810190506105d0565b50505050905090810190601f1680156106185780820380516001836020036101000a031916815260200191505b50935050505060405180910390f35b34801561063357600080fd5b5061063c611a36565b005b34801561064a57600080fd5b5061068d6004803603602081101561066157600080fd5b81019080803573ffffffffffffffffffffffffffffffffffffffff169060200190929190505050611bbc565b60405180806020018060200180602001848103845287818151815260200191508051906020019060200280838360005b838110156106d85780820151818401526020810190506106bd565b50505050905001848103835286818151815260200191508051906020019060200280838360005b8381101561071a5780820151818401526020810190506106ff565b50505050905001848103825285818151815260200191508051906020019080838360005b8381101561075957808201518184015260208101905061073e565b50505050905090810190601f1680156107865780820380516001836020036101000a031916815260200191505b50965050505050505060405180910390f35b3480156107a457600080fd5b506107ad6120ba565b604051808273ffffffffffffffffffffffffffffffffffffffff16815260200191505060405180910390f35b3480156107e557600080fd5b506107ee6121ac565b604051808273ffffffffffffffffffffffffffffffffffffffff16815260200191505060405180910390f35b34801561082657600080fd5b506108dd6004803603602081101561083d57600080fd5b810190808035906020019064010000000081111561085a57600080fd5b82018360208201111561086c57600080fd5b8035906020019184602083028401116401000000008311171561088e57600080fd5b919080806020026020016040519081016040528093929190818152602001838360200280828437600081840152601f19601f8201169050808301925050505050505091929192905050506121d5565b604051808060200180602001838103835285818151815260200191508051906020019060200280838360005b83811015610924578082015181840152602081019050610909565b50505050905001838103825284818151815260200191508051906020019080838360005b83811015610963578082015181840152602081019050610948565b50505050905090810190601f1680156109905780820380516001836020036101000a031916815260200191505b5094505050505060405180910390f35b6109cc600480360360208110156109b657600080fd5b81019080803590602001909291905050506121f3565b005b3480156109da57600080fd5b50610a07600480360360208110156109f157600080fd5b810190808035906020019092919050505061247a565b6040518082815260200191505060405180910390f35b348015610a2957600080fd5b50610a6c60048036036020811015610a4057600080fd5b81019080803573ffffffffffffffffffffffffffffffffffffffff1690602001909291905050506124b7565b005b6060815167ffffffffffffffff81118015610a8857600080fd5b50604051908082528060200260200182016040528015610ab75781602001602082028036833780820191505090505b50905060005b8251811015610c05576000838281518110610ad457fe5b60200260200101519050600160009054906101000a900473ffffffffffffffffffffffffffffffffffffffff1673ffffffffffffffffffffffffffffffffffffffff16634f558e79826040518263ffffffff1660e01b81526004018082815260200191505060206040518083038186803b158015610b5157600080fd5b505afa158015610b65573d6000803e3d6000fd5b505050506040513d6020811015610b7b57600080fd5b81019080805190602001909291905050508015610ba85750610ba78160026126c290919063ffffffff16565b5b610bca576000838381518110610bba57fe5b6020026020010181815250610bf6565b610bde8160026126dc90919063ffffffff16565b838381518110610bea57fe5b60200260200101818152505b50508080600101915050610abd565b50919050565b606060005b8251811015610e8c5781600160009054906101000a900473ffffffffffffffffffffffffffffffffffffffff1673ffffffffffffffffffffffffffffffffffffffff1663c87b56dd858481518110610c6457fe5b60200260200101516040518263ffffffff1660e01b81526004018082815260200191505060006040518083038186803b158015610ca057600080fd5b505afa158015610cb4573d6000803e3d6000fd5b505050506040513d6000823e3d601f19601f820116820180604052506020811015610cde57600080fd5b8101908080516040519392919084640100000000821115610cfe57600080fd5b83820191506020820185811115610d1457600080fd5b8251866001820283011164010000000082111715610d3157600080fd5b8083526020830192505050908051906020019080838360005b83811015610d65578082015181840152602081019050610d4a565b50505050905090810190601f168015610d925780820380516001836020036101000a031916815260200191505b506040525050506040516020018083805190602001908083835b60208310610dcf5780518252602082019150602081019050602083039250610dac565b6001836020036101000a038019825116818451168082178552505050505050905001807f200000000000000000000000000000000000000000000000000000000000000081525060010182805190602001908083835b60208310610e485780518252602082019150602081019050602083039250610e25565b6001836020036101000a0380198251168184511680821785525050505050509050019250505060405160208183030381529060405291508080600101915050610c10565b50919050565b60608060606000610ea360026126f9565b90508067ffffffffffffffff81118015610ebc57600080fd5b50604051908082528060200260200182016040528015610eeb5781602001602082028036833780820191505090505b5093508067ffffffffffffffff81118015610f0557600080fd5b50604051908082528060200260200182016040528015610f345781602001602082028036833780820191505090505b50925060005b8181101561139d57600080610f5983600261270e90919063ffffffff16565b91509150600160009054906101000a900473ffffffffffffffffffffffffffffffffffffffff1673ffffffffffffffffffffffffffffffffffffffff16634f558e79836040518263ffffffff1660e01b81526004018082815260200191505060206040518083038186803b158015610fd057600080fd5b505afa158015610fe4573d6000803e3d6000fd5b505050506040513d6020811015610ffa57600080fd5b810190808051906020019092919050505061110657600080866040516020018082805190602001908083835b602083106110495780518252602082019150602081019050602083039250611026565b6001836020036101000a038019825116818451168082178552505050505050905001807f2000000000000000000000000000000000000000000000000000000000000000815250600101807f30000000000000000000000000000000000000000000000000000000000000008152506001019150506040516020818303038152906040528986815181106110d957fe5b602002602001018987815181106110ec57fe5b60200260200101829950838152508381525050505061138e565b818186600160009054906101000a900473ffffffffffffffffffffffffffffffffffffffff1673ffffffffffffffffffffffffffffffffffffffff1663c87b56dd866040518263ffffffff1660e01b81526004018082815260200191505060006040518083038186803b15801561117c57600080fd5b505afa158015611190573d6000803e3d6000fd5b505050506040513d6000823e3d601f19601f8201168201806040525060208110156111ba57600080fd5b81019080805160405193929190846401000000008211156111da57600080fd5b838201915060208201858111156111f057600080fd5b825186600182028301116401000000008211171561120d57600080fd5b8083526020830192505050908051906020019080838360005b83811015611241578082015181840152602081019050611226565b50505050905090810190601f16801561126e5780820380516001836020036101000a031916815260200191505b506040525050506040516020018083805190602001908083835b602083106112ab5780518252602082019150602081019050602083039250611288565b6001836020036101000a038019825116818451168082178552505050505050905001807f200000000000000000000000000000000000000000000000000000000000000081525060010182805190602001908083835b602083106113245780518252602082019150602081019050602083039250611301565b6001836020036101000a0380198251168184511680821785525050505050509050019250505060405160208183030381529060405289868151811061136557fe5b6020026020010189878151811061137857fe5b6020026020010182995083815250838152505050505b50508080600101915050610f3a565b5050909192565b60046020528060005260406000206000915090505481565b60006113c661273a565b90506000600460008373ffffffffffffffffffffffffffffffffffffffff1673ffffffffffffffffffffffffffffffffffffffff1681526020019081526020016000205490506000600460008473ffffffffffffffffffffffffffffffffffffffff1673ffffffffffffffffffffffffffffffffffffffff1681526020019081526020016000208190555060008273ffffffffffffffffffffffffffffffffffffffff168260405180600001905060006040518083038185875af1925050503d80600081146114b1576040519150601f19603f3d011682016040523d82523d6000602084013e6114b6565b606091505b50509050806114c457600080fd5b818373ffffffffffffffffffffffffffffffffffffffff167f884edad9ce6fa2440d8a54cc123490eb96d2768479d49ff9c7366125a942436460405160405180910390a3505050565b8061151661273a565b73ffffffffffffffffffffffffffffffffffffffff16600160009054906101000a900473ffffffffffffffffffffffffffffffffffffffff1673ffffffffffffffffffffffffffffffffffffffff16636352211e836040518263ffffffff1660e01b81526004018082815260200191505060206040518083038186803b15801561159f57600080fd5b505afa1580156115b3573d6000803e3d6000fd5b505050506040513d60208110156115c957600080fd5b810190808051906020019092919050505073ffffffffffffffffffffffffffffffffffffffff1614611663576040517f08c379a000000000000000000000000000000000000000000000000000000000815260040180806020018281038252601b8152602001807f426f6f6b53686f703a204e6f74206f776e6572206f6620626f6f6b000000000081525060200191505060405180910390fd5b816116788160026126c290919063ffffffff16565b6116ea576040517f08c379a00000000000000000000000000000000000000000000000000000000081526004018080602001828103825260148152602001807f426f6f6b53686f703a204e6f74204c697374656400000000000000000000000081525060200191505060405180910390fd5b6116fe83600261274290919063ffffffff16565b508261170861273a565b73ffffffffffffffffffffffffffffffffffffffff167f7b30ebe1270c711fd6f2ea8146db41aff41f541ea69e9ede9ec705185b2e95e760405160405180910390a3505050565b8161175861273a565b73ffffffffffffffffffffffffffffffffffffffff16600160009054906101000a900473ffffffffffffffffffffffffffffffffffffffff1673ffffffffffffffffffffffffffffffffffffffff16636352211e836040518263ffffffff1660e01b81526004018082815260200191505060206040518083038186803b1580156117e157600080fd5b505afa1580156117f5573d6000803e3d6000fd5b505050506040513d602081101561180b57600080fd5b810190808051906020019092919050505073ffffffffffffffffffffffffffffffffffffffff16146118a5576040517f08c379a000000000000000000000000000000000000000000000000000000000815260040180806020018281038252601b8152602001807f426f6f6b53686f703a204e6f74206f776e6572206f6620626f6f6b000000000081525060200191505060405180910390fd5b6118af838361275c565b505050565b606060006118c18361247a565b9050600160009054906101000a900473ffffffffffffffffffffffffffffffffffffffff1673ffffffffffffffffffffffffffffffffffffffff1663c87b56dd846040518263ffffffff1660e01b81526004018082815260200191505060006040518083038186803b15801561193657600080fd5b505afa15801561194a573d6000803e3d6000fd5b505050506040513d6000823e3d601f19601f82011682018060405250602081101561197457600080fd5b810190808051604051939291908464010000000082111561199457600080fd5b838201915060208201858111156119aa57600080fd5b82518660018202830111640100000000821117156119c757600080fd5b8083526020830192505050908051906020019080838360005b838110156119fb5780820151818401526020810190506119e0565b50505050905090810190601f168015611a285780820380516001836020036101000a031916815260200191505b506040525050509150915091565b611a3e61273a565b73ffffffffffffffffffffffffffffffffffffffff1660008054906101000a900473ffffffffffffffffffffffffffffffffffffffff1673ffffffffffffffffffffffffffffffffffffffff1614611afe576040517f08c379a00000000000000000000000000000000000000000000000000000000081526004018080602001828103825260208152602001807f4f776e61626c653a2063616c6c6572206973206e6f7420746865206f776e657281525060200191505060405180910390fd5b600073ffffffffffffffffffffffffffffffffffffffff1660008054906101000a900473ffffffffffffffffffffffffffffffffffffffff1673ffffffffffffffffffffffffffffffffffffffff167f8be0079c531659141344cd1fd0a4f28419497f9722a3daafe3b4186f6b6457e060405160405180910390a360008060006101000a81548173ffffffffffffffffffffffffffffffffffffffff021916908373ffffffffffffffffffffffffffffffffffffffff160217905550565b60608060606000600160009054906101000a900473ffffffffffffffffffffffffffffffffffffffff1673ffffffffffffffffffffffffffffffffffffffff166370a08231866040518263ffffffff1660e01b8152600401808273ffffffffffffffffffffffffffffffffffffffff16815260200191505060206040518083038186803b158015611c4c57600080fd5b505afa158015611c60573d6000803e3d6000fd5b505050506040513d6020811015611c7657600080fd5b810190808051906020019092919050505090508067ffffffffffffffff81118015611ca057600080fd5b50604051908082528060200260200182016040528015611ccf5781602001602082028036833780820191505090505b5093508067ffffffffffffffff81118015611ce957600080fd5b50604051908082528060200260200182016040528015611d185781602001602082028036833780820191505090505b50925060005b818110156120b157600160009054906101000a900473ffffffffffffffffffffffffffffffffffffffff1673ffffffffffffffffffffffffffffffffffffffff16632f745c5987836040518363ffffffff1660e01b8152600401808373ffffffffffffffffffffffffffffffffffffffff1681526020018281526020019250505060206040518083038186803b158015611db757600080fd5b505afa158015611dcb573d6000803e3d6000fd5b505050506040513d6020811015611de157600080fd5b8101908080519060200190929190505050858281518110611dfe57fe5b602002602001018181525050611e26858281518110611e1957fe5b602002602001015161247a565b848281518110611e3257fe5b60200260200101818152505082600160009054906101000a900473ffffffffffffffffffffffffffffffffffffffff1673ffffffffffffffffffffffffffffffffffffffff1663c87b56dd878481518110611e8957fe5b60200260200101516040518263ffffffff1660e01b81526004018082815260200191505060006040518083038186803b158015611ec557600080fd5b505afa158015611ed9573d6000803e3d6000fd5b505050506040513d6000823e3d601f19601f820116820180604052506020811015611f0357600080fd5b8101908080516040519392919084640100000000821115611f2357600080fd5b83820191506020820185811115611f3957600080fd5b8251866001820283011164010000000082111715611f5657600080fd5b8083526020830192505050908051906020019080838360005b83811015611f8a578082015181840152602081019050611f6f565b50505050905090810190601f168015611fb75780820380516001836020036101000a031916815260200191505b506040525050506040516020018083805190602001908083835b60208310611ff45780518252602082019150602081019050602083039250611fd1565b6001836020036101000a038019825116818451168082178552505050505050905001807f200000000000000000000000000000000000000000000000000000000000000081525060010182805190602001908083835b6020831061206d578051825260208201915060208101905060208303925061204a565b6001836020036101000a0380198251168184511680821785525050505050509050019250505060405160208183030381529060405292508080600101915050611d1e565b50509193909250565b60006120c461273a565b73ffffffffffffffffffffffffffffffffffffffff1660008054906101000a900473ffffffffffffffffffffffffffffffffffffffff1673ffffffffffffffffffffffffffffffffffffffff1614612184576040517f08c379a00000000000000000000000000000000000000000000000000000000081526004018080602001828103825260208152602001807f4f776e61626c653a2063616c6c6572206973206e6f7420746865206f776e657281525060200191505060405180910390fd5b600160009054906101000a900473ffffffffffffffffffffffffffffffffffffffff16905090565b60008060009054906101000a900473ffffffffffffffffffffffffffffffffffffffff16905090565b6060806121e183610a6e565b91506121ec83610c0b565b9050915091565b806122088160026126c290919063ffffffff16565b61227a576040517f08c379a00000000000000000000000000000000000000000000000000000000081526004018080602001828103825260148152602001807f426f6f6b53686f703a204e6f74204c697374656400000000000000000000000081525060200191505060405180910390fd5b60006122908360026126dc90919063ffffffff16565b905080341015612308576040517f08c379a00000000000000000000000000000000000000000000000000000000081526004018080602001828103825260198152602001807f426f6f6b53686f703a205072696365206973206869676865720000000000000081525060200191505060405180910390fd5b6000600160009054906101000a900473ffffffffffffffffffffffffffffffffffffffff1673ffffffffffffffffffffffffffffffffffffffff16636352211e856040518263ffffffff1660e01b81526004018082815260200191505060206040518083038186803b15801561237d57600080fd5b505afa158015612391573d6000803e3d6000fd5b505050506040513d60208110156123a757600080fd5b8101908080519060200190929190505050905081600460008373ffffffffffffffffffffffffffffffffffffffff1673ffffffffffffffffffffffffffffffffffffffff168152602001908152602001600020600082825401925050819055508361241061273a565b73ffffffffffffffffffffffffffffffffffffffff168273ffffffffffffffffffffffffffffffffffffffff167f89f5adc174562e07c9c9b1cae7109bbecb21cf9d1b2847e550042b8653c54a0e856040518082815260200191505060405180910390a450505050565b60006124908260026126c290919063ffffffff16565b61249b5760006124b0565b6124af8260026126dc90919063ffffffff16565b5b9050919050565b6124bf61273a565b73ffffffffffffffffffffffffffffffffffffffff1660008054906101000a900473ffffffffffffffffffffffffffffffffffffffff1673ffffffffffffffffffffffffffffffffffffffff161461257f576040517f08c379a00000000000000000000000000000000000000000000000000000000081526004018080602001828103825260208152602001807f4f776e61626c653a2063616c6c6572206973206e6f7420746865206f776e657281525060200191505060405180910390fd5b600073ffffffffffffffffffffffffffffffffffffffff168173ffffffffffffffffffffffffffffffffffffffff161415612605576040517f08c379a0000000000000000000000000000000000000000000000000000000008152600401808060200182810382526026815260200180612c666026913960400191505060405180910390fd5b8073ffffffffffffffffffffffffffffffffffffffff1660008054906101000a900473ffffffffffffffffffffffffffffffffffffffff1673ffffffffffffffffffffffffffffffffffffffff167f8be0079c531659141344cd1fd0a4f28419497f9722a3daafe3b4186f6b6457e060405160405180910390a3806000806101000a81548173ffffffffffffffffffffffffffffffffffffffff021916908373ffffffffffffffffffffffffffffffffffffffff16021790555050565b60006126d4836000018360001b612844565b905092915050565b60006126ee836000018360001b612867565b60001c905092915050565b6000612707826000016128b1565b9050919050565b60008060008061272186600001866128c2565b915091508160001c8160001c9350935050509250929050565b600033905090565b6000612754836000018360001b61295b565b905092915050565b60008114156127d3576040517f08c379a000000000000000000000000000000000000000000000000000000000815260040180806020018281038252601e8152602001807f426f6f6b53686f703a2050726963652063616e6e6f74206265207a65726f000081525060200191505060405180910390fd5b6127e982826002612a749092919063ffffffff16565b50816127f361273a565b73ffffffffffffffffffffffffffffffffffffffff167f1518ffac149698f404e82117efa8b67d99c365490eefe4e0f91856a93ca8d9c1836040518082815260200191505060405180910390a35050565b600080836001016000848152602001908152602001600020541415905092915050565b60006128a983836040518060400160405280601e81526020017f456e756d657261626c654d61703a206e6f6e6578697374656e74206b65790000815250612a93565b905092915050565b600081600001805490509050919050565b60008082846000018054905011612924576040517f08c379a0000000000000000000000000000000000000000000000000000000008152600401808060200182810382526022815260200180612c8c6022913960400191505060405180910390fd5b600084600001848154811061293557fe5b906000526020600020906002020190508060000154816001015492509250509250929050565b60008083600101600084815260200190815260200160002054905060008114612a6857600060018203905060006001866000018054905003905060008660000182815481106129a657fe5b90600052602060002090600202019050808760000184815481106129c657fe5b9060005260206000209060020201600082015481600001556001820154816001015590505060018301876001016000836000015481526020019081526020016000208190555086600001805480612a1957fe5b6001900381819060005260206000209060020201600080820160009055600182016000905550509055866001016000878152602001908152602001600020600090556001945050505050612a6e565b60009150505b92915050565b6000612a8a846000018460001b8460001b612b89565b90509392505050565b60008084600101600085815260200190815260200160002054905060008114158390612b5a576040517f08c379a00000000000000000000000000000000000000000000000000000000081526004018080602001828103825283818151815260200191508051906020019080838360005b83811015612b1f578082015181840152602081019050612b04565b50505050905090810190601f168015612b4c5780820380516001836020036101000a031916815260200191505b509250505060405180910390fd5b50846000016001820381548110612b6d57fe5b9060005260206000209060020201600101549150509392505050565b6000808460010160008581526020019081526020016000205490506000811415612c3057846000016040518060400160405280868152602001858152509080600181540180825580915050600190039060005260206000209060020201600090919091909150600082015181600001556020820151816001015550508460000180549050856001016000868152602001908152602001600020819055506001915050612c5e565b82856000016001830381548110612c4357fe5b90600052602060002090600202016001018190555060009150505b939250505056fe4f776e61626c653a206e6577206f776e657220697320746865207a65726f2061646472657373456e756d657261626c654d61703a20696e646578206f7574206f6620626f756e6473a2646970667358221220ad7559073045e317a7f513cf50f2d7568d191638f322e020b245d23bf3333ccf64736f6c634300060c0033",
  "source": "// SPDX-License-Identifier: MIT\npragma solidity ^0.6.0;\n\nimport \"./OpenBooks.sol\";\nimport \"./EnumerablePrices.sol\";\n\ncontract BookShop is Ownable{\n    using EnumerablePrices for EnumerablePrices.UintToUintMap;\n    \n    //activate Libraties\n    using SafeMath for uint256;\n    \n    //state variables\n    OpenBooks private openBooks;\n    EnumerablePrices.UintToUintMap prices;\n    mapping(address => uint) public balances;\n    \n    \n    //modifiers\n    modifier isOwner(uint _bookId){\n        require(openBooks.ownerOf(_bookId) == _msgSender(), \"BookShop: Not owner of book\");\n        _;    \n    }\n    modifier onSale(uint _bookId){\n        require(prices.contains(_bookId), \"BookShop: Not Listed\");\n        _;\n    }\n    \n    //events\n    event List(address indexed owner, uint indexed bookId, uint price);\n    event DeList(address indexed owner, uint indexed bookId);\n    event Buy(address indexed owner, address indexed buyer, uint indexed bookId, uint price);\n    event Withdraw(address indexed sender, uint indexed amount);\n    \n    \n    constructor(OpenBooks _openBooks) public{\n        require(address(_openBooks) != address(0));\n        openBooks = _openBooks;\n    }\n\n    function getOpenBooks() external view onlyOwner returns(address){\n        return address(openBooks);\n    }\n    \n    function list(uint _bookId, uint _price) external isOwner(_bookId){\n        _list(_bookId, _price);\n    }\n    \n    function _list(uint _bookId, uint _price) private {\n        require(_price != 0, \"BookShop: Price cannot be zero\");\n        prices.set(_bookId, _price);\n        emit List(_msgSender(), _bookId, _price);\n    }\n    \n    function deList(uint _bookId)external isOwner(_bookId) onSale(_bookId){\n        prices.remove(_bookId);\n        emit DeList(_msgSender(), _bookId);   \n    }\n    \n    \n    function buy(uint _bookId) external payable onSale(_bookId){\n        uint price = prices.get(_bookId);\n        require( msg.value >= price, \"BookShop: Price is higher\");\n        address owner = openBooks.ownerOf(_bookId);\n        balances[owner] += price;\n        \n        emit Buy(owner, _msgSender(), _bookId, price);\n    }\n    \n    \n    function withdraw() external{\n        address sender = _msgSender();\n        uint balance = balances[sender];\n        balances[sender] = 0;\n        (bool success, ) = payable(address(sender)).call.value(balance)(\"\");\n        require(success);\n        emit Withdraw(sender, balance);\n    }\n    \n    \n    function getPrice(uint _bookId) public view returns(uint price){\n        price = prices.contains(_bookId) ? prices.get(_bookId) : 0;\n    }\n    \n\n    function getPrices(uint[] memory _bookIds) public view returns(uint[] memory bookPrices){\n        bookPrices = new uint[](_bookIds.length);\n\n        for(uint i=0; i < _bookIds.length; i++){\n            uint bookId = _bookIds[i];\n            (openBooks.exists(bookId) && prices.contains(bookId)) ? \n                bookPrices[i] = prices.get(bookId) : \n                bookPrices[i] = 0;\n        }        \n    }\n    \n    function getBookURIs(uint[] memory _bookIds) public view returns(string memory URIs){\n        for(uint i; i < _bookIds.length; i++){\n            URIs = string(abi.encodePacked(URIs, \" \", openBooks.tokenURI(_bookIds[i])));\n        }\n    }\n    \n    function getBookInfo(uint _bookId) public view returns(string memory URI, uint price){\n        price = getPrice(_bookId);\n        URI = openBooks.tokenURI(_bookId);\n    }\n    \n    function getBooksInfo(uint[] memory _bookIds) public view returns(uint[] memory bookPrices, string memory URIs){\n        bookPrices = getPrices(_bookIds);\n        URIs = getBookURIs(_bookIds);\n    }\n    \n    \n    function getBooks(address _address) public view returns(\n        uint[] memory bookIds,\n        uint[] memory bookPrices,\n        string memory URIs\n    )\n        {\n        uint length = openBooks.balanceOf(_address);\n        bookIds = new uint[](length);\n        bookPrices = new uint[](length);\n        for(uint i; i < length; i++){\n            bookIds[i] = openBooks.tokenOfOwnerByIndex(_address, i);\n            bookPrices[i] = getPrice(bookIds[i]);\n            URIs = string(abi.encodePacked(URIs, \" \", openBooks.tokenURI(bookIds[i])));\n        }\n    }\n    \n    \n    function getAllBooksOnSale() public view returns(\n        uint[] memory bookIds, \n        uint[] memory bookPrices,\n        string memory URIs\n    ){\n        uint booksNo = prices.length();\n        bookIds = new uint[](booksNo);\n        bookPrices = new uint[](booksNo);\n        \n        for(uint i = 0; i < booksNo; i++){\n            (uint bookId, uint price) = prices.at(i);\n            (openBooks.exists(bookId)) ? \n                (bookIds[i], bookPrices[i], URIs) = (bookId, price, string(abi.encodePacked(URIs, \" \", openBooks.tokenURI(bookId))) )  : \n                (bookIds[i], bookPrices[i], URIs) = (0, 0, string(abi.encodePacked(URIs, \" \", \"0\" ))) ;\n        }\n    }\n}",
  "sourcePath": "/home/nonseodion/Desktop/Codes/Blockchain/Crypto BookShop/contracts/BookShop.sol",
  "compiler": {
    "name": "solc",
    "version": "0.6.12+commit.27d51765.Emscripten.clang"
  },
  "schemaVersion": "3.0.20",
  "updatedAt": "2020-11-28T03:49:37.758Z",
  "networkType": "ethereum",
  "devdoc": {
    "kind": "dev",
    "methods": {
      "owner()": {
        "details": "Returns the address of the current owner."
      },
      "renounceOwnership()": {
        "details": "Leaves the contract without owner. It will not be possible to call `onlyOwner` functions anymore. Can only be called by the current owner. NOTE: Renouncing ownership will leave the contract without an owner, thereby removing any functionality that is only available to the owner."
      },
      "transferOwnership(address)": {
        "details": "Transfers ownership of the contract to a new account (`newOwner`). Can only be called by the current owner."
      }
    },
    "version": 1
  },
  "userdoc": {
    "kind": "user",
    "methods": {},
    "version": 1
  }
}