{
  "contractName": "BookShop",
  "abi": [
    {
      "inputs": [
        {
          "internalType": "contract OpenBooks",
          "name": "_openBooks",
          "type": "address"
        }
      ],
      "stateMutability": "nonpayable",
      "type": "constructor"
    },
    {
      "anonymous": false,
      "inputs": [
        {
          "indexed": true,
          "internalType": "address",
          "name": "owner",
          "type": "address"
        },
        {
          "indexed": true,
          "internalType": "address",
          "name": "buyer",
          "type": "address"
        },
        {
          "indexed": true,
          "internalType": "uint256",
          "name": "bookId",
          "type": "uint256"
        },
        {
          "indexed": false,
          "internalType": "uint256",
          "name": "price",
          "type": "uint256"
        }
      ],
      "name": "Buy",
      "type": "event"
    },
    {
      "anonymous": false,
      "inputs": [
        {
          "indexed": false,
          "internalType": "address",
          "name": "account",
          "type": "address"
        }
      ],
      "name": "BuyPaused",
      "type": "event"
    },
    {
      "anonymous": false,
      "inputs": [
        {
          "indexed": false,
          "internalType": "address",
          "name": "account",
          "type": "address"
        }
      ],
      "name": "BuyUnpaused",
      "type": "event"
    },
    {
      "anonymous": false,
      "inputs": [
        {
          "indexed": true,
          "internalType": "address",
          "name": "owner",
          "type": "address"
        },
        {
          "indexed": true,
          "internalType": "uint256",
          "name": "bookId",
          "type": "uint256"
        }
      ],
      "name": "DeList",
      "type": "event"
    },
    {
      "anonymous": false,
      "inputs": [
        {
          "indexed": true,
          "internalType": "address",
          "name": "owner",
          "type": "address"
        },
        {
          "indexed": true,
          "internalType": "uint256",
          "name": "bookId",
          "type": "uint256"
        },
        {
          "indexed": false,
          "internalType": "uint256",
          "name": "price",
          "type": "uint256"
        }
      ],
      "name": "List",
      "type": "event"
    },
    {
      "anonymous": false,
      "inputs": [
        {
          "indexed": true,
          "internalType": "address",
          "name": "previousOwner",
          "type": "address"
        },
        {
          "indexed": true,
          "internalType": "address",
          "name": "newOwner",
          "type": "address"
        }
      ],
      "name": "OwnershipTransferred",
      "type": "event"
    },
    {
      "anonymous": false,
      "inputs": [
        {
          "indexed": true,
          "internalType": "address",
          "name": "sender",
          "type": "address"
        },
        {
          "indexed": true,
          "internalType": "uint256",
          "name": "amount",
          "type": "uint256"
        }
      ],
      "name": "Withdraw",
      "type": "event"
    },
    {
      "anonymous": false,
      "inputs": [
        {
          "indexed": false,
          "internalType": "address",
          "name": "account",
          "type": "address"
        }
      ],
      "name": "WithdrawPaused",
      "type": "event"
    },
    {
      "anonymous": false,
      "inputs": [
        {
          "indexed": false,
          "internalType": "address",
          "name": "account",
          "type": "address"
        }
      ],
      "name": "WithdrawUnpaused",
      "type": "event"
    },
    {
      "inputs": [
        {
          "internalType": "address",
          "name": "",
          "type": "address"
        }
      ],
      "name": "balances",
      "outputs": [
        {
          "internalType": "uint256",
          "name": "",
          "type": "uint256"
        }
      ],
      "stateMutability": "view",
      "type": "function",
      "constant": true
    },
    {
      "inputs": [],
      "name": "buyPaused",
      "outputs": [
        {
          "internalType": "bool",
          "name": "",
          "type": "bool"
        }
      ],
      "stateMutability": "view",
      "type": "function",
      "constant": true
    },
    {
      "inputs": [],
      "name": "owner",
      "outputs": [
        {
          "internalType": "address",
          "name": "",
          "type": "address"
        }
      ],
      "stateMutability": "view",
      "type": "function",
      "constant": true
    },
    {
      "inputs": [],
      "name": "renounceOwnership",
      "outputs": [],
      "stateMutability": "nonpayable",
      "type": "function"
    },
    {
      "inputs": [
        {
          "internalType": "address",
          "name": "newOwner",
          "type": "address"
        }
      ],
      "name": "transferOwnership",
      "outputs": [],
      "stateMutability": "nonpayable",
      "type": "function"
    },
    {
      "inputs": [],
      "name": "withdrawPaused",
      "outputs": [
        {
          "internalType": "bool",
          "name": "",
          "type": "bool"
        }
      ],
      "stateMutability": "view",
      "type": "function",
      "constant": true
    },
    {
      "inputs": [],
      "name": "getOpenBooks",
      "outputs": [
        {
          "internalType": "address",
          "name": "",
          "type": "address"
        }
      ],
      "stateMutability": "view",
      "type": "function",
      "constant": true
    },
    {
      "inputs": [
        {
          "internalType": "uint256",
          "name": "_bookId",
          "type": "uint256"
        },
        {
          "internalType": "uint256",
          "name": "_price",
          "type": "uint256"
        }
      ],
      "name": "list",
      "outputs": [],
      "stateMutability": "nonpayable",
      "type": "function"
    },
    {
      "inputs": [
        {
          "internalType": "uint256",
          "name": "_bookId",
          "type": "uint256"
        }
      ],
      "name": "deList",
      "outputs": [],
      "stateMutability": "nonpayable",
      "type": "function"
    },
    {
      "inputs": [
        {
          "internalType": "uint256",
          "name": "_bookId",
          "type": "uint256"
        }
      ],
      "name": "buy",
      "outputs": [],
      "stateMutability": "payable",
      "type": "function",
      "payable": true
    },
    {
      "inputs": [],
      "name": "withdraw",
      "outputs": [],
      "stateMutability": "nonpayable",
      "type": "function"
    },
    {
      "inputs": [
        {
          "internalType": "uint256",
          "name": "_bookId",
          "type": "uint256"
        }
      ],
      "name": "getPrice",
      "outputs": [
        {
          "internalType": "uint256",
          "name": "price",
          "type": "uint256"
        }
      ],
      "stateMutability": "view",
      "type": "function",
      "constant": true
    },
    {
      "inputs": [
        {
          "internalType": "uint256[]",
          "name": "_bookIds",
          "type": "uint256[]"
        }
      ],
      "name": "getPrices",
      "outputs": [
        {
          "internalType": "uint256[]",
          "name": "bookPrices",
          "type": "uint256[]"
        }
      ],
      "stateMutability": "view",
      "type": "function",
      "constant": true
    },
    {
      "inputs": [
        {
          "internalType": "uint256[]",
          "name": "_bookIds",
          "type": "uint256[]"
        }
      ],
      "name": "getBookURIs",
      "outputs": [
        {
          "internalType": "string",
          "name": "URIs",
          "type": "string"
        }
      ],
      "stateMutability": "view",
      "type": "function",
      "constant": true
    },
    {
      "inputs": [
        {
          "internalType": "uint256",
          "name": "_bookId",
          "type": "uint256"
        }
      ],
      "name": "getBookInfo",
      "outputs": [
        {
          "internalType": "string",
          "name": "URI",
          "type": "string"
        },
        {
          "internalType": "uint256",
          "name": "price",
          "type": "uint256"
        }
      ],
      "stateMutability": "view",
      "type": "function",
      "constant": true
    },
    {
      "inputs": [
        {
          "internalType": "uint256[]",
          "name": "_bookIds",
          "type": "uint256[]"
        }
      ],
      "name": "getBooksInfo",
      "outputs": [
        {
          "internalType": "uint256[]",
          "name": "bookPrices",
          "type": "uint256[]"
        },
        {
          "internalType": "string",
          "name": "URIs",
          "type": "string"
        }
      ],
      "stateMutability": "view",
      "type": "function",
      "constant": true
    },
    {
      "inputs": [
        {
          "internalType": "address",
          "name": "_address",
          "type": "address"
        }
      ],
      "name": "getBooks",
      "outputs": [
        {
          "internalType": "uint256[]",
          "name": "bookIds",
          "type": "uint256[]"
        },
        {
          "internalType": "uint256[]",
          "name": "bookPrices",
          "type": "uint256[]"
        },
        {
          "internalType": "string",
          "name": "URIs",
          "type": "string"
        }
      ],
      "stateMutability": "view",
      "type": "function",
      "constant": true
    },
    {
      "inputs": [],
      "name": "getAllBooksOnSale",
      "outputs": [
        {
          "internalType": "uint256[]",
          "name": "bookIds",
          "type": "uint256[]"
        },
        {
          "internalType": "uint256[]",
          "name": "bookPrices",
          "type": "uint256[]"
        },
        {
          "internalType": "string",
          "name": "URIs",
          "type": "string"
        }
      ],
      "stateMutability": "view",
      "type": "function",
      "constant": true
    },
    {
      "inputs": [],
      "name": "pauseBuy",
      "outputs": [],
      "stateMutability": "nonpayable",
      "type": "function"
    },
    {
      "inputs": [],
      "name": "pauseWithdraw",
      "outputs": [],
      "stateMutability": "nonpayable",
      "type": "function"
    },
    {
      "inputs": [],
      "name": "unPauseBuy",
      "outputs": [],
      "stateMutability": "nonpayable",
      "type": "function"
    },
    {
      "inputs": [],
      "name": "unPauseWithdraw",
      "outputs": [],
      "stateMutability": "nonpayable",
      "type": "function"
    }
  ],
  "bytecode": "0x60806040523480156200001157600080fd5b50604051620037e8380380620037e8833981810160405260208110156200003757600080fd5b810190808051906020019092919050505060006200005a620001af60201b60201c565b9050806000806101000a81548173ffffffffffffffffffffffffffffffffffffffff021916908373ffffffffffffffffffffffffffffffffffffffff1602179055508073ffffffffffffffffffffffffffffffffffffffff16600073ffffffffffffffffffffffffffffffffffffffff167f8be0079c531659141344cd1fd0a4f28419497f9722a3daafe3b4186f6b6457e060405160405180910390a35060008060146101000a81548160ff02191690831515021790555060008060156101000a81548160ff021916908315150217905550600073ffffffffffffffffffffffffffffffffffffffff168173ffffffffffffffffffffffffffffffffffffffff1614156200016757600080fd5b80600160006101000a81548173ffffffffffffffffffffffffffffffffffffffff021916908373ffffffffffffffffffffffffffffffffffffffff16021790555050620001b7565b600033905090565b61362180620001c76000396000f3fe6080604052600436106101355760003560e01c8063715018a6116100ab578063a38eb6221161006f578063a38eb622146108ce578063cff9f044146108e5578063d96a094a14610a6b578063e757223014610a99578063f2fde38b14610ae8578063f43b78ff14610b3957610135565b8063715018a6146106c45780638140a067146106db5780638471dd62146108355780638a6773331461084c5780638da5cb5b1461088d57610135565b80633b4a00b4116100fd5780633b4a00b4146105445780633ccfd60b1461055b57806343be2d031461057257806350fd7367146105ad57806357a26847146105f25780636155e3de146106ad57610135565b806309cb3a4e1461013a5780630bfda58f1461025457806320cf53b81461039257806327e235e3146104b25780632f3ffb9f14610517575b600080fd5b34801561014657600080fd5b506101fd6004803603602081101561015d57600080fd5b810190808035906020019064010000000081111561017a57600080fd5b82018360208201111561018c57600080fd5b803590602001918460208302840111640100000000831117156101ae57600080fd5b919080806020026020016040519081016040528093929190818152602001838360200280828437600081840152601f19601f820116905080830192505050505050509192919290505050610b66565b6040518080602001828103825283818151815260200191508051906020019060200280838360005b83811015610240578082015181840152602081019050610225565b505050509050019250505060405180910390f35b34801561026057600080fd5b506103176004803603602081101561027757600080fd5b810190808035906020019064010000000081111561029457600080fd5b8201836020820111156102a657600080fd5b803590602001918460208302840111640100000000831117156102c857600080fd5b919080806020026020016040519081016040528093929190818152602001838360200280828437600081840152601f19601f820116905080830192505050505050509192919290505050610d03565b6040518080602001828103825283818151815260200191508051906020019080838360005b8381101561035757808201518184015260208101905061033c565b50505050905090810190601f1680156103845780820380516001836020036101000a031916815260200191505b509250505060405180910390f35b34801561039e57600080fd5b506103a7610f8a565b60405180806020018060200180602001848103845287818151815260200191508051906020019060200280838360005b838110156103f25780820151818401526020810190506103d7565b50505050905001848103835286818151815260200191508051906020019060200280838360005b83811015610434578082015181840152602081019050610419565b50505050905001848103825285818151815260200191508051906020019080838360005b83811015610473578082015181840152602081019050610458565b50505050905090810190601f1680156104a05780820380516001836020036101000a031916815260200191505b50965050505050505060405180910390f35b3480156104be57600080fd5b50610501600480360360208110156104d557600080fd5b81019080803573ffffffffffffffffffffffffffffffffffffffff16906020019092919050505061149c565b6040518082815260200191505060405180910390f35b34801561052357600080fd5b5061052c6114b4565b60405180821515815260200191505060405180910390f35b34801561055057600080fd5b506105596114ca565b005b34801561056757600080fd5b5061057061159c565b005b34801561057e57600080fd5b506105ab6004803603602081101561059557600080fd5b8101908080359060200190929190505050611770565b005b3480156105b957600080fd5b506105f0600480360360408110156105d057600080fd5b8101908080359060200190929190803590602001909291905050506119b2565b005b3480156105fe57600080fd5b5061062b6004803603602081101561061557600080fd5b8101908080359060200190929190505050611b17565b6040518080602001838152602001828103825284818151815260200191508051906020019080838360005b83811015610671578082015181840152602081019050610656565b50505050905090810190601f16801561069e5780820380516001836020036101000a031916815260200191505b50935050505060405180910390f35b3480156106b957600080fd5b506106c2611c99565b005b3480156106d057600080fd5b506106d9611d6b565b005b3480156106e757600080fd5b5061072a600480360360208110156106fe57600080fd5b81019080803573ffffffffffffffffffffffffffffffffffffffff169060200190929190505050611ef1565b60405180806020018060200180602001848103845287818151815260200191508051906020019060200280838360005b8381101561077557808201518184015260208101905061075a565b50505050905001848103835286818151815260200191508051906020019060200280838360005b838110156107b757808201518184015260208101905061079c565b50505050905001848103825285818151815260200191508051906020019080838360005b838110156107f65780820151818401526020810190506107db565b50505050905090810190601f1680156108235780820380516001836020036101000a031916815260200191505b50965050505050505060405180910390f35b34801561084157600080fd5b5061084a6123ef565b005b34801561085857600080fd5b506108616124c1565b604051808273ffffffffffffffffffffffffffffffffffffffff16815260200191505060405180910390f35b34801561089957600080fd5b506108a26125b3565b604051808273ffffffffffffffffffffffffffffffffffffffff16815260200191505060405180910390f35b3480156108da57600080fd5b506108e36125dc565b005b3480156108f157600080fd5b506109a86004803603602081101561090857600080fd5b810190808035906020019064010000000081111561092557600080fd5b82018360208201111561093757600080fd5b8035906020019184602083028401116401000000008311171561095957600080fd5b919080806020026020016040519081016040528093929190818152602001838360200280828437600081840152601f19601f8201169050808301925050505050505091929192905050506126ae565b604051808060200180602001838103835285818151815260200191508051906020019060200280838360005b838110156109ef5780820151818401526020810190506109d4565b50505050905001838103825284818151815260200191508051906020019080838360005b83811015610a2e578082015181840152602081019050610a13565b50505050905090810190601f168015610a5b5780820380516001836020036101000a031916815260200191505b5094505050505060405180910390f35b610a9760048036036020811015610a8157600080fd5b81019080803590602001909291905050506126cc565b005b348015610aa557600080fd5b50610ad260048036036020811015610abc57600080fd5b81019080803590602001909291905050506129d6565b6040518082815260200191505060405180910390f35b348015610af457600080fd5b50610b3760048036036020811015610b0b57600080fd5b81019080803573ffffffffffffffffffffffffffffffffffffffff169060200190929190505050612a13565b005b348015610b4557600080fd5b50610b4e612c1e565b60405180821515815260200191505060405180910390f35b6060815167ffffffffffffffff81118015610b8057600080fd5b50604051908082528060200260200182016040528015610baf5781602001602082028036833780820191505090505b50905060005b8251811015610cfd576000838281518110610bcc57fe5b60200260200101519050600160009054906101000a900473ffffffffffffffffffffffffffffffffffffffff1673ffffffffffffffffffffffffffffffffffffffff16634f558e79826040518263ffffffff1660e01b81526004018082815260200191505060206040518083038186803b158015610c4957600080fd5b505afa158015610c5d573d6000803e3d6000fd5b505050506040513d6020811015610c7357600080fd5b81019080805190602001909291905050508015610ca05750610c9f816002612c3490919063ffffffff16565b5b610cc2576000838381518110610cb257fe5b6020026020010181815250610cee565b610cd6816002612c4e90919063ffffffff16565b838381518110610ce257fe5b60200260200101818152505b50508080600101915050610bb5565b50919050565b606060005b8251811015610f845781600160009054906101000a900473ffffffffffffffffffffffffffffffffffffffff1673ffffffffffffffffffffffffffffffffffffffff1663c87b56dd858481518110610d5c57fe5b60200260200101516040518263ffffffff1660e01b81526004018082815260200191505060006040518083038186803b158015610d9857600080fd5b505afa158015610dac573d6000803e3d6000fd5b505050506040513d6000823e3d601f19601f820116820180604052506020811015610dd657600080fd5b8101908080516040519392919084640100000000821115610df657600080fd5b83820191506020820185811115610e0c57600080fd5b8251866001820283011164010000000082111715610e2957600080fd5b8083526020830192505050908051906020019080838360005b83811015610e5d578082015181840152602081019050610e42565b50505050905090810190601f168015610e8a5780820380516001836020036101000a031916815260200191505b506040525050506040516020018083805190602001908083835b60208310610ec75780518252602082019150602081019050602083039250610ea4565b6001836020036101000a038019825116818451168082178552505050505050905001807f200000000000000000000000000000000000000000000000000000000000000081525060010182805190602001908083835b60208310610f405780518252602082019150602081019050602083039250610f1d565b6001836020036101000a0380198251168184511680821785525050505050509050019250505060405160208183030381529060405291508080600101915050610d08565b50919050565b60608060606000610f9b6002612c6b565b90508067ffffffffffffffff81118015610fb457600080fd5b50604051908082528060200260200182016040528015610fe35781602001602082028036833780820191505090505b5093508067ffffffffffffffff81118015610ffd57600080fd5b5060405190808252806020026020018201604052801561102c5781602001602082028036833780820191505090505b50925060005b8181101561149557600080611051836002612c8090919063ffffffff16565b91509150600160009054906101000a900473ffffffffffffffffffffffffffffffffffffffff1673ffffffffffffffffffffffffffffffffffffffff16634f558e79836040518263ffffffff1660e01b81526004018082815260200191505060206040518083038186803b1580156110c857600080fd5b505afa1580156110dc573d6000803e3d6000fd5b505050506040513d60208110156110f257600080fd5b81019080805190602001909291905050506111fe57600080866040516020018082805190602001908083835b60208310611141578051825260208201915060208101905060208303925061111e565b6001836020036101000a038019825116818451168082178552505050505050905001807f2000000000000000000000000000000000000000000000000000000000000000815250600101807f30000000000000000000000000000000000000000000000000000000000000008152506001019150506040516020818303038152906040528986815181106111d157fe5b602002602001018987815181106111e457fe5b602002602001018299508381525083815250505050611486565b818186600160009054906101000a900473ffffffffffffffffffffffffffffffffffffffff1673ffffffffffffffffffffffffffffffffffffffff1663c87b56dd866040518263ffffffff1660e01b81526004018082815260200191505060006040518083038186803b15801561127457600080fd5b505afa158015611288573d6000803e3d6000fd5b505050506040513d6000823e3d601f19601f8201168201806040525060208110156112b257600080fd5b81019080805160405193929190846401000000008211156112d257600080fd5b838201915060208201858111156112e857600080fd5b825186600182028301116401000000008211171561130557600080fd5b8083526020830192505050908051906020019080838360005b8381101561133957808201518184015260208101905061131e565b50505050905090810190601f1680156113665780820380516001836020036101000a031916815260200191505b506040525050506040516020018083805190602001908083835b602083106113a35780518252602082019150602081019050602083039250611380565b6001836020036101000a038019825116818451168082178552505050505050905001807f200000000000000000000000000000000000000000000000000000000000000081525060010182805190602001908083835b6020831061141c57805182526020820191506020810190506020830392506113f9565b6001836020036101000a0380198251168184511680821785525050505050509050019250505060405160208183030381529060405289868151811061145d57fe5b6020026020010189878151811061147057fe5b6020026020010182995083815250838152505050505b50508080600101915050611032565b5050909192565b60046020528060005260406000206000915090505481565b60008060159054906101000a900460ff16905090565b6114d2612cac565b73ffffffffffffffffffffffffffffffffffffffff1660008054906101000a900473ffffffffffffffffffffffffffffffffffffffff1673ffffffffffffffffffffffffffffffffffffffff1614611592576040517f08c379a00000000000000000000000000000000000000000000000000000000081526004018080602001828103825260208152602001807f4f776e61626c653a2063616c6c6572206973206e6f7420746865206f776e657281525060200191505060405180910390fd5b61159a612cb4565b565b600060159054906101000a900460ff161561161f576040517f08c379a00000000000000000000000000000000000000000000000000000000081526004018080602001828103825260198152602001807f5061757361626c653a205769746864726177207061757365640000000000000081525060200191505060405180910390fd5b6000611629612cac565b90506000600460008373ffffffffffffffffffffffffffffffffffffffff1673ffffffffffffffffffffffffffffffffffffffff1681526020019081526020016000205490506000600460008473ffffffffffffffffffffffffffffffffffffffff1673ffffffffffffffffffffffffffffffffffffffff1681526020019081526020016000208190555060008273ffffffffffffffffffffffffffffffffffffffff168260405180600001905060006040518083038185875af1925050503d8060008114611714576040519150601f19603f3d011682016040523d82523d6000602084013e611719565b606091505b505090508061172757600080fd5b818373ffffffffffffffffffffffffffffffffffffffff167f884edad9ce6fa2440d8a54cc123490eb96d2768479d49ff9c7366125a942436460405160405180910390a3505050565b80611779612cac565b73ffffffffffffffffffffffffffffffffffffffff16600160009054906101000a900473ffffffffffffffffffffffffffffffffffffffff1673ffffffffffffffffffffffffffffffffffffffff16636352211e836040518263ffffffff1660e01b81526004018082815260200191505060206040518083038186803b15801561180257600080fd5b505afa158015611816573d6000803e3d6000fd5b505050506040513d602081101561182c57600080fd5b810190808051906020019092919050505073ffffffffffffffffffffffffffffffffffffffff16146118c6576040517f08c379a000000000000000000000000000000000000000000000000000000000815260040180806020018281038252601b8152602001807f426f6f6b53686f703a204e6f74206f776e6572206f6620626f6f6b000000000081525060200191505060405180910390fd5b816118db816002612c3490919063ffffffff16565b61194d576040517f08c379a00000000000000000000000000000000000000000000000000000000081526004018080602001828103825260148152602001807f426f6f6b53686f703a204e6f74204c697374656400000000000000000000000081525060200191505060405180910390fd5b611961836002612da690919063ffffffff16565b508261196b612cac565b73ffffffffffffffffffffffffffffffffffffffff167f7b30ebe1270c711fd6f2ea8146db41aff41f541ea69e9ede9ec705185b2e95e760405160405180910390a3505050565b816119bb612cac565b73ffffffffffffffffffffffffffffffffffffffff16600160009054906101000a900473ffffffffffffffffffffffffffffffffffffffff1673ffffffffffffffffffffffffffffffffffffffff16636352211e836040518263ffffffff1660e01b81526004018082815260200191505060206040518083038186803b158015611a4457600080fd5b505afa158015611a58573d6000803e3d6000fd5b505050506040513d6020811015611a6e57600080fd5b810190808051906020019092919050505073ffffffffffffffffffffffffffffffffffffffff1614611b08576040517f08c379a000000000000000000000000000000000000000000000000000000000815260040180806020018281038252601b8152602001807f426f6f6b53686f703a204e6f74206f776e6572206f6620626f6f6b000000000081525060200191505060405180910390fd5b611b128383612dc0565b505050565b60606000611b24836129d6565b9050600160009054906101000a900473ffffffffffffffffffffffffffffffffffffffff1673ffffffffffffffffffffffffffffffffffffffff1663c87b56dd846040518263ffffffff1660e01b81526004018082815260200191505060006040518083038186803b158015611b9957600080fd5b505afa158015611bad573d6000803e3d6000fd5b505050506040513d6000823e3d601f19601f820116820180604052506020811015611bd757600080fd5b8101908080516040519392919084640100000000821115611bf757600080fd5b83820191506020820185811115611c0d57600080fd5b8251866001820283011164010000000082111715611c2a57600080fd5b8083526020830192505050908051906020019080838360005b83811015611c5e578082015181840152602081019050611c43565b50505050905090810190601f168015611c8b5780820380516001836020036101000a031916815260200191505b506040525050509150915091565b611ca1612cac565b73ffffffffffffffffffffffffffffffffffffffff1660008054906101000a900473ffffffffffffffffffffffffffffffffffffffff1673ffffffffffffffffffffffffffffffffffffffff1614611d61576040517f08c379a00000000000000000000000000000000000000000000000000000000081526004018080602001828103825260208152602001807f4f776e61626c653a2063616c6c6572206973206e6f7420746865206f776e657281525060200191505060405180910390fd5b611d69612ea8565b565b611d73612cac565b73ffffffffffffffffffffffffffffffffffffffff1660008054906101000a900473ffffffffffffffffffffffffffffffffffffffff1673ffffffffffffffffffffffffffffffffffffffff1614611e33576040517f08c379a00000000000000000000000000000000000000000000000000000000081526004018080602001828103825260208152602001807f4f776e61626c653a2063616c6c6572206973206e6f7420746865206f776e657281525060200191505060405180910390fd5b600073ffffffffffffffffffffffffffffffffffffffff1660008054906101000a900473ffffffffffffffffffffffffffffffffffffffff1673ffffffffffffffffffffffffffffffffffffffff167f8be0079c531659141344cd1fd0a4f28419497f9722a3daafe3b4186f6b6457e060405160405180910390a360008060006101000a81548173ffffffffffffffffffffffffffffffffffffffff021916908373ffffffffffffffffffffffffffffffffffffffff160217905550565b60608060606000600160009054906101000a900473ffffffffffffffffffffffffffffffffffffffff1673ffffffffffffffffffffffffffffffffffffffff166370a08231866040518263ffffffff1660e01b8152600401808273ffffffffffffffffffffffffffffffffffffffff16815260200191505060206040518083038186803b158015611f8157600080fd5b505afa158015611f95573d6000803e3d6000fd5b505050506040513d6020811015611fab57600080fd5b810190808051906020019092919050505090508067ffffffffffffffff81118015611fd557600080fd5b506040519080825280602002602001820160405280156120045781602001602082028036833780820191505090505b5093508067ffffffffffffffff8111801561201e57600080fd5b5060405190808252806020026020018201604052801561204d5781602001602082028036833780820191505090505b50925060005b818110156123e657600160009054906101000a900473ffffffffffffffffffffffffffffffffffffffff1673ffffffffffffffffffffffffffffffffffffffff16632f745c5987836040518363ffffffff1660e01b8152600401808373ffffffffffffffffffffffffffffffffffffffff1681526020018281526020019250505060206040518083038186803b1580156120ec57600080fd5b505afa158015612100573d6000803e3d6000fd5b505050506040513d602081101561211657600080fd5b810190808051906020019092919050505085828151811061213357fe5b60200260200101818152505061215b85828151811061214e57fe5b60200260200101516129d6565b84828151811061216757fe5b60200260200101818152505082600160009054906101000a900473ffffffffffffffffffffffffffffffffffffffff1673ffffffffffffffffffffffffffffffffffffffff1663c87b56dd8784815181106121be57fe5b60200260200101516040518263ffffffff1660e01b81526004018082815260200191505060006040518083038186803b1580156121fa57600080fd5b505afa15801561220e573d6000803e3d6000fd5b505050506040513d6000823e3d601f19601f82011682018060405250602081101561223857600080fd5b810190808051604051939291908464010000000082111561225857600080fd5b8382019150602082018581111561226e57600080fd5b825186600182028301116401000000008211171561228b57600080fd5b8083526020830192505050908051906020019080838360005b838110156122bf5780820151818401526020810190506122a4565b50505050905090810190601f1680156122ec5780820380516001836020036101000a031916815260200191505b506040525050506040516020018083805190602001908083835b602083106123295780518252602082019150602081019050602083039250612306565b6001836020036101000a038019825116818451168082178552505050505050905001807f200000000000000000000000000000000000000000000000000000000000000081525060010182805190602001908083835b602083106123a2578051825260208201915060208101905060208303925061237f565b6001836020036101000a0380198251168184511680821785525050505050509050019250505060405160208183030381529060405292508080600101915050612053565b50509193909250565b6123f7612cac565b73ffffffffffffffffffffffffffffffffffffffff1660008054906101000a900473ffffffffffffffffffffffffffffffffffffffff1673ffffffffffffffffffffffffffffffffffffffff16146124b7576040517f08c379a00000000000000000000000000000000000000000000000000000000081526004018080602001828103825260208152602001807f4f776e61626c653a2063616c6c6572206973206e6f7420746865206f776e657281525060200191505060405180910390fd5b6124bf612f9c565b565b60006124cb612cac565b73ffffffffffffffffffffffffffffffffffffffff1660008054906101000a900473ffffffffffffffffffffffffffffffffffffffff1673ffffffffffffffffffffffffffffffffffffffff161461258b576040517f08c379a00000000000000000000000000000000000000000000000000000000081526004018080602001828103825260208152602001807f4f776e61626c653a2063616c6c6572206973206e6f7420746865206f776e657281525060200191505060405180910390fd5b600160009054906101000a900473ffffffffffffffffffffffffffffffffffffffff16905090565b60008060009054906101000a900473ffffffffffffffffffffffffffffffffffffffff16905090565b6125e4612cac565b73ffffffffffffffffffffffffffffffffffffffff1660008054906101000a900473ffffffffffffffffffffffffffffffffffffffff1673ffffffffffffffffffffffffffffffffffffffff16146126a4576040517f08c379a00000000000000000000000000000000000000000000000000000000081526004018080602001828103825260208152602001807f4f776e61626c653a2063616c6c6572206973206e6f7420746865206f776e657281525060200191505060405180910390fd5b6126ac61308e565b565b6060806126ba83610b66565b91506126c583610d03565b9050915091565b806126e1816002612c3490919063ffffffff16565b612753576040517f08c379a00000000000000000000000000000000000000000000000000000000081526004018080602001828103825260148152602001807f426f6f6b53686f703a204e6f74204c697374656400000000000000000000000081525060200191505060405180910390fd5b600060149054906101000a900460ff16156127d6576040517f08c379a00000000000000000000000000000000000000000000000000000000081526004018080602001828103825260148152602001807f5061757361626c653a204275792070617573656400000000000000000000000081525060200191505060405180910390fd5b60006127ec836002612c4e90919063ffffffff16565b905080341015612864576040517f08c379a00000000000000000000000000000000000000000000000000000000081526004018080602001828103825260198152602001807f426f6f6b53686f703a205072696365206973206869676865720000000000000081525060200191505060405180910390fd5b6000600160009054906101000a900473ffffffffffffffffffffffffffffffffffffffff1673ffffffffffffffffffffffffffffffffffffffff16636352211e856040518263ffffffff1660e01b81526004018082815260200191505060206040518083038186803b1580156128d957600080fd5b505afa1580156128ed573d6000803e3d6000fd5b505050506040513d602081101561290357600080fd5b8101908080519060200190929190505050905081600460008373ffffffffffffffffffffffffffffffffffffffff1673ffffffffffffffffffffffffffffffffffffffff168152602001908152602001600020600082825401925050819055508361296c612cac565b73ffffffffffffffffffffffffffffffffffffffff168273ffffffffffffffffffffffffffffffffffffffff167f89f5adc174562e07c9c9b1cae7109bbecb21cf9d1b2847e550042b8653c54a0e856040518082815260200191505060405180910390a450505050565b60006129ec826002612c3490919063ffffffff16565b6129f7576000612a0c565b612a0b826002612c4e90919063ffffffff16565b5b9050919050565b612a1b612cac565b73ffffffffffffffffffffffffffffffffffffffff1660008054906101000a900473ffffffffffffffffffffffffffffffffffffffff1673ffffffffffffffffffffffffffffffffffffffff1614612adb576040517f08c379a00000000000000000000000000000000000000000000000000000000081526004018080602001828103825260208152602001807f4f776e61626c653a2063616c6c6572206973206e6f7420746865206f776e657281525060200191505060405180910390fd5b600073ffffffffffffffffffffffffffffffffffffffff168173ffffffffffffffffffffffffffffffffffffffff161415612b61576040517f08c379a00000000000000000000000000000000000000000000000000000000081526004018080602001828103825260268152602001806135a46026913960400191505060405180910390fd5b8073ffffffffffffffffffffffffffffffffffffffff1660008054906101000a900473ffffffffffffffffffffffffffffffffffffffff1673ffffffffffffffffffffffffffffffffffffffff167f8be0079c531659141344cd1fd0a4f28419497f9722a3daafe3b4186f6b6457e060405160405180910390a3806000806101000a81548173ffffffffffffffffffffffffffffffffffffffff021916908373ffffffffffffffffffffffffffffffffffffffff16021790555050565b60008060149054906101000a900460ff16905090565b6000612c46836000018360001b613182565b905092915050565b6000612c60836000018360001b6131a5565b60001c905092915050565b6000612c79826000016131ef565b9050919050565b600080600080612c938660000186613200565b915091508160001c8160001c9350935050509250929050565b600033905090565b600060149054906101000a900460ff16612d36576040517f08c379a00000000000000000000000000000000000000000000000000000000081526004018080602001828103825260188152602001807f5061757361626c653a20427579206e6f7420706175736564000000000000000081525060200191505060405180910390fd5b60008060146101000a81548160ff0219169083151502179055507f1fca686fe8b90694d638f449d38b5d59c6c23de9d9d7f92c0bef7e2930d208e7612d79612cac565b604051808273ffffffffffffffffffffffffffffffffffffffff16815260200191505060405180910390a1565b6000612db8836000018360001b613299565b905092915050565b6000811415612e37576040517f08c379a000000000000000000000000000000000000000000000000000000000815260040180806020018281038252601e8152602001807f426f6f6b53686f703a2050726963652063616e6e6f74206265207a65726f000081525060200191505060405180910390fd5b612e4d828260026133b29092919063ffffffff16565b5081612e57612cac565b73ffffffffffffffffffffffffffffffffffffffff167f1518ffac149698f404e82117efa8b67d99c365490eefe4e0f91856a93ca8d9c1836040518082815260200191505060405180910390a35050565b600060159054906101000a900460ff1615612f2b576040517f08c379a00000000000000000000000000000000000000000000000000000000081526004018080602001828103825260198152602001807f5061757361626c653a205769746864726177207061757365640000000000000081525060200191505060405180910390fd5b6001600060156101000a81548160ff0219169083151502179055507f3ae9cb0b9362e4151e0f8a457d8653a5f451286fcb3888732e6f52edd848c861612f6f612cac565b604051808273ffffffffffffffffffffffffffffffffffffffff16815260200191505060405180910390a1565b600060159054906101000a900460ff1661301e576040517f08c379a000000000000000000000000000000000000000000000000000000000815260040180806020018281038252601d8152602001807f5061757361626c653a205769746864726177206e6f742070617573656400000081525060200191505060405180910390fd5b60008060156101000a81548160ff0219169083151502179055507f8604163159807e7bf2e8ea09cf49d26f388a5d4c09bbe6865169a9b46944d814613061612cac565b604051808273ffffffffffffffffffffffffffffffffffffffff16815260200191505060405180910390a1565b600060149054906101000a900460ff1615613111576040517f08c379a00000000000000000000000000000000000000000000000000000000081526004018080602001828103825260148152602001807f5061757361626c653a204275792070617573656400000000000000000000000081525060200191505060405180910390fd5b6001600060146101000a81548160ff0219169083151502179055507f45169df37d8b437c44cc42c052c2cbf92a2dca5ef49ec02cfb0bd83fd9da2aff613155612cac565b604051808273ffffffffffffffffffffffffffffffffffffffff16815260200191505060405180910390a1565b600080836001016000848152602001908152602001600020541415905092915050565b60006131e783836040518060400160405280601e81526020017f456e756d657261626c654d61703a206e6f6e6578697374656e74206b657900008152506133d1565b905092915050565b600081600001805490509050919050565b60008082846000018054905011613262576040517f08c379a00000000000000000000000000000000000000000000000000000000081526004018080602001828103825260228152602001806135ca6022913960400191505060405180910390fd5b600084600001848154811061327357fe5b906000526020600020906002020190508060000154816001015492509250509250929050565b600080836001016000848152602001908152602001600020549050600081146133a657600060018203905060006001866000018054905003905060008660000182815481106132e457fe5b906000526020600020906002020190508087600001848154811061330457fe5b906000526020600020906002020160008201548160000155600182015481600101559050506001830187600101600083600001548152602001908152602001600020819055508660000180548061335757fe5b60019003818190600052602060002090600202016000808201600090556001820160009055505090558660010160008781526020019081526020016000206000905560019450505050506133ac565b60009150505b92915050565b60006133c8846000018460001b8460001b6134c7565b90509392505050565b60008084600101600085815260200190815260200160002054905060008114158390613498576040517f08c379a00000000000000000000000000000000000000000000000000000000081526004018080602001828103825283818151815260200191508051906020019080838360005b8381101561345d578082015181840152602081019050613442565b50505050905090810190601f16801561348a5780820380516001836020036101000a031916815260200191505b509250505060405180910390fd5b508460000160018203815481106134ab57fe5b9060005260206000209060020201600101549150509392505050565b600080846001016000858152602001908152602001600020549050600081141561356e5784600001604051806040016040528086815260200185815250908060018154018082558091505060019003906000526020600020906002020160009091909190915060008201518160000155602082015181600101555050846000018054905085600101600086815260200190815260200160002081905550600191505061359c565b8285600001600183038154811061358157fe5b90600052602060002090600202016001018190555060009150505b939250505056fe4f776e61626c653a206e6577206f776e657220697320746865207a65726f2061646472657373456e756d657261626c654d61703a20696e646578206f7574206f6620626f756e6473a2646970667358221220aaa1fca859ab63b1c78bd857f968d3e029a5e4ed36ebde0b7bfc9b9e889b5bb864736f6c634300060c0033",
  "source": "// SPDX-License-Identifier: MIT\npragma solidity ^0.6.0;\n\nimport \"./OpenBooks.sol\";\nimport \"./EnumerablePrices.sol\";\n\n//Pausable Contract\n/**\n * @dev Contract module which allows children to implement an emergency stop\n * mechanism that can be triggered by an authorized account.\n *\n * This module is used through inheritance. It will make available the\n * modifiers `whenNotPaused` and `whenPaused`, which can be applied to\n * the functions of your contract. Note that they will not be pausable by\n * simply including this module, only once the modifiers are put in place.\n */\nabstract contract Pausable is Context {\n    /**\n     * @dev Emitted when the pause is triggered by `account`.\n     */\n    event WithdrawPaused(address account);\n    event BuyPaused(address account);\n\n    /**\n     * @dev Emitted when the pause is lifted by `account`.\n     */\n    event WithdrawUnpaused(address account);\n    event BuyUnpaused(address account);\n    \n    bool private _buyPaused;\n    bool private _withdrawPaused;\n\n    /**\n     * @dev Initializes the contract in unpaused state.\n     */\n    constructor () internal {\n        _buyPaused = false;\n        _withdrawPaused = false;\n    }\n\n    /**\n     * @dev Returns true if the contract is paused, and false otherwise.\n     */\n    function withdrawPaused() public view returns (bool) {\n        return _withdrawPaused;\n    }\n    \n    function buyPaused() public view returns (bool) {\n        return _buyPaused;\n    }\n\n    /**\n     * @dev Modifier to make a function callable only when the contract is not paused.\n     *\n     * Requirements:\n     *\n     * - The contract must not be paused.\n     */\n    modifier whenBuyNotPaused() {\n        require(!_buyPaused, \"Pausable: Buy paused\");\n        _;\n    }\n    \n    modifier whenWithdrawNotPaused() {\n        require(!_withdrawPaused, \"Pausable: Withdraw paused\");\n        _;\n    }\n\n    /**\n     * @dev Modifier to make a function callable only when the contract is paused.\n     *\n     * Requirements:\n     *\n     * - The contract must be paused.\n     */\n    modifier whenBuyPaused() {\n        require(_buyPaused, \"Pausable: Buy not paused\");\n        _;\n    }\n    \n    modifier whenWithdrawPaused() {\n        require(_withdrawPaused, \"Pausable: Withdraw not paused\");\n        _;\n    }\n\n       /**\n     * @dev Triggers stopped state.\n     *\n     * Requirements:\n     *\n     * - The contract must not be paused.\n     */\n    function _pauseBuy() internal virtual whenBuyNotPaused {\n        _buyPaused = true;\n        emit BuyPaused(_msgSender());\n    }\n    \n    function _pauseWithdraw() internal virtual whenWithdrawNotPaused {\n        _withdrawPaused = true;\n        emit WithdrawPaused(_msgSender());\n    }\n\n    /**\n     * @dev Returns to normal state.\n     *\n     * Requirements:\n     *\n     * - The contract must be paused.\n     */\n    function _unPauseWithdraw() internal virtual whenWithdrawPaused {\n        _withdrawPaused = false;\n        emit WithdrawUnpaused(_msgSender());\n    }\n    \n    function _unPauseBuy() internal virtual whenBuyPaused {\n        _buyPaused = false;\n        emit BuyUnpaused(_msgSender());\n    }\n}\n\n\n\n//BookShop Contract\n\n/// @title A BookShop\n/// @author Ifebhor Odion Nonse\n/// A marketplace for selling books on the OpenBooks contract\n/// @dev communicates with the OpenBook contract for ownership proof,\n/// keeps a record of books for sale and does not transfer books, buyers download\ncontract BookShop is Ownable, Pausable{\n    \n    /// activate Libraties\n    using SafeMath for uint256;\n    using EnumerablePrices for EnumerablePrices.UintToUintMap;\n    \n    /// state variables\n    OpenBooks private openBooks;\n    /// An enumarable list of book ids mapped to their prices\n    EnumerablePrices.UintToUintMap prices;\n    /// @return the number of books owned by an address\n    mapping(address => uint) public balances;\n    \n    \n    /// modifiers\n    modifier isOwner(uint _bookId){\n        require(openBooks.ownerOf(_bookId) == _msgSender(), \"BookShop: Not owner of book\");\n        _;    \n    }\n    modifier onSale(uint _bookId){\n        require(prices.contains(_bookId), \"BookShop: Not Listed\");\n        _;\n    }\n    \n    /// events\n    event List(address indexed owner, uint indexed bookId, uint price);\n    event DeList(address indexed owner, uint indexed bookId);\n    event Buy(address indexed owner, address indexed buyer, uint indexed bookId, uint price);\n    event Withdraw(address indexed sender, uint indexed amount);\n    \n    \n    /// Initializes the contract \n    /// @dev stores the address of the contract holding the books\n    /// @param _openBooks the address of the contract holding the books, \n    /// it cannot be zero\n    constructor(OpenBooks _openBooks) public{\n        require(address(_openBooks) != address(0));\n        openBooks = _openBooks;\n    }\n\n    /// Used to get the address of the contract holding the books\n    function getOpenBooks() external view onlyOwner returns(address){\n        return address(openBooks);\n    }\n    \n    /// Used to put a book up for sale\n    /// @dev the book's id and its price are added to the enumerable prices\n    /// @param _bookId the id of the book to be listed\n    /// @param _price the price to be sold for, it cannot be zero\n    function list(uint _bookId, uint _price) external isOwner(_bookId){\n        _list(_bookId, _price);\n    }\n    \n    function _list(uint _bookId, uint _price) private {\n        require(_price != 0, \"BookShop: Price cannot be zero\");\n        prices.set(_bookId, _price);\n        emit List(_msgSender(), _bookId, _price);\n    }\n    \n    /// Used to remove a book from sale\n    /// @dev removes a book's id from the enumerable prices list\n    /// @param _bookId the id of the book to be removed from sale, it must be on sale\n    function deList(uint _bookId)external isOwner(_bookId) onSale(_bookId){\n        prices.remove(_bookId);\n        emit DeList(_msgSender(), _bookId);   \n    }\n    \n    /// Lets a buyer pay for the book with at least the specified price\n    /// @dev lets a buyer download the book after successful payment\n    /// the transaction's value must not be less than the books price\n    /// @param _bookId the bookId to be bought\n    function buy(uint _bookId) external payable onSale(_bookId) whenBuyNotPaused{\n        uint price = prices.get(_bookId);\n        require( msg.value >= price, \"BookShop: Price is higher\");\n        address owner = openBooks.ownerOf(_bookId);\n        balances[owner] += price;\n        \n        emit Buy(owner, _msgSender(), _bookId, price);\n    }\n    \n    /// Allows anyone withthdraw their proceeds from book sales\n    /// @dev can be called by anyone and they are given all of their \n    /// balance in balances withdrawals must not be paused \n    function withdraw() external whenWithdrawNotPaused{\n        address sender = _msgSender();\n        uint balance = balances[sender];\n        balances[sender] = 0;\n        (bool success, ) = payable(address(sender)).call.value(balance)(\"\");\n        require(success);\n        emit Withdraw(sender, balance);\n    }\n    \n    /// Used to get the price of a book on sale\n    /// @param _bookId the book's price needed\n    /// @return price the price of the book on sale, it's zero if the book is not on sale\n    function getPrice(uint _bookId) public view returns(uint price){\n        price = prices.contains(_bookId) ? prices.get(_bookId) : 0;\n    }\n    \n    /// Gets the price of a list of book ids\n    /// @param _bookIds an array of bookids\n    /// @return bookPrices an array of the price of each book in its corresponding index in _bookIds\n    function getPrices(uint[] memory _bookIds) public view returns(uint[] memory bookPrices){\n        bookPrices = new uint[](_bookIds.length);\n\n        for(uint i=0; i < _bookIds.length; i++){\n            uint bookId = _bookIds[i];\n            (openBooks.exists(bookId) && prices.contains(bookId)) ? \n                bookPrices[i] = prices.get(bookId) : \n                bookPrices[i] = 0;\n        }        \n    }\n    \n    /// Gets the URIs of a list of books\n    /// @param _bookIds an array of bookids\n    /// @return URIs a string of URIs with each URI separated by a \" \"\n    function getBookURIs(uint[] memory _bookIds) public view returns(string memory URIs){\n        for(uint i; i < _bookIds.length; i++){\n            URIs = string(abi.encodePacked(URIs, \" \", openBooks.tokenURI(_bookIds[i])));\n        }\n    }\n    \n    /// Gets the URI and price of a book\n    /// @param _bookId the id of the book whose information is needed\n    /// @return URI the URI of _bookId\n    /// @return price the price of _bookId\n    function getBookInfo(uint _bookId) public view returns(string memory URI, uint price){\n        price = getPrice(_bookId);\n        URI = openBooks.tokenURI(_bookId);\n    }\n\n    /// Gets the URI and the price of a list of books\n    /// @dev calls getPrices and getBookURIs\n    /// @param _bookIds the ids of the books which their information is needed\n    /// @return bookPrices an array of the price of each book in it's corresponding index in _bookIds\n    /// @return URIs a string of URIs with each URI separated by a \" \"\n    function getBooksInfo(uint[] memory _bookIds) public view returns(uint[] memory bookPrices, string memory URIs){\n        bookPrices = getPrices(_bookIds);\n        URIs = getBookURIs(_bookIds);\n    }\n    \n    /// Gets all the bookIds, bookPrices, and URIs of books owned by an address\n    /// Each index in the return values except URIs contain the information of a single book\n    function getBooks(address _address) public view returns(\n        uint[] memory bookIds,\n        uint[] memory bookPrices,\n        string memory URIs\n    )\n        {\n        uint length = openBooks.balanceOf(_address);\n        bookIds = new uint[](length);\n        bookPrices = new uint[](length);\n        for(uint i; i < length; i++){\n            bookIds[i] = openBooks.tokenOfOwnerByIndex(_address, i);\n            bookPrices[i] = getPrice(bookIds[i]);\n            URIs = string(abi.encodePacked(URIs, \" \", openBooks.tokenURI(bookIds[i])));\n        }\n    }\n    \n    /// Gets all the books on sale\n    /// @dev iterates through prices to get all the books\n    /// @return bookIds the ids of all books on sale\n    /// @return bookPrices the prices of all books on sale\n    /// @return URIs the URIs of all the books on sale \n    function getAllBooksOnSale() public view returns(\n        uint[] memory bookIds, \n        uint[] memory bookPrices,\n        string memory URIs\n    ){\n        uint booksNo = prices.length();\n        bookIds = new uint[](booksNo);\n        bookPrices = new uint[](booksNo);\n        \n        for(uint i = 0; i < booksNo; i++){\n            (uint bookId, uint price) = prices.at(i);\n            (openBooks.exists(bookId)) ? \n                (bookIds[i], bookPrices[i], URIs) = (bookId, price, string(abi.encodePacked(URIs, \" \", openBooks.tokenURI(bookId))) )  : \n                (bookIds[i], bookPrices[i], URIs) = (0, 0, string(abi.encodePacked(URIs, \" \", \"0\" ))) ;\n        }\n    }\n\n    /// Pauses the buy function and is only callable by the contract owner\n    function pauseBuy() onlyOwner external{\n        _pauseBuy();\n    }\n    \n    /// Pauses the withdraw function and is only callable by the contract owner\n    function pauseWithdraw() onlyOwner external{\n        _pauseWithdraw();\n    }\n    \n    /// Unpauses the buy function and is only callable by the contract owner\n    function unPauseBuy() onlyOwner external{\n        _unPauseBuy();\n    }\n    \n    /// Unpauses the withdraw function and is only callable by the contract owner\n    function unPauseWithdraw() onlyOwner external{\n        _unPauseWithdraw();\n    }\n}",
  "sourcePath": "/home/nonseodion/Desktop/Codes/Blockchain/Crypto BookShop/contracts/BookShop.sol",
  "compiler": {
    "name": "solc",
    "version": "0.6.12+commit.27d51765.Emscripten.clang"
  },
  "schemaVersion": "3.0.20",
  "updatedAt": "2020-11-29T18:26:23.596Z",
  "networkType": "ethereum",
  "devdoc": {
    "author": "Ifebhor Odion Nonse A marketplace for selling books on the OpenBooks contract",
    "details": "communicates with the OpenBook contract for ownership proof, keeps a record of books for sale and does not transfer books, buyers download",
    "kind": "dev",
    "methods": {
      "buy(uint256)": {
        "details": "lets a buyer download the book after successful payment the transaction's value must not be less than the books price",
        "params": {
          "_bookId": "the bookId to be bought"
        }
      },
      "constructor": {
        "details": "stores the address of the contract holding the books",
        "params": {
          "_openBooks": "the address of the contract holding the books,  it cannot be zero"
        }
      },
      "deList(uint256)": {
        "details": "removes a book's id from the enumerable prices list",
        "params": {
          "_bookId": "the id of the book to be removed from sale, it must be on sale"
        }
      },
      "getAllBooksOnSale()": {
        "details": "iterates through prices to get all the books",
        "returns": {
          "URIs": "the URIs of all the books on sale ",
          "bookIds": "the ids of all books on sale",
          "bookPrices": "the prices of all books on sale"
        }
      },
      "getBookInfo(uint256)": {
        "params": {
          "_bookId": "the id of the book whose information is needed"
        },
        "returns": {
          "URI": "the URI of _bookId",
          "price": "the price of _bookId"
        }
      },
      "getBookURIs(uint256[])": {
        "params": {
          "_bookIds": "an array of bookids"
        },
        "returns": {
          "URIs": "a string of URIs with each URI separated by a \" \""
        }
      },
      "getBooksInfo(uint256[])": {
        "details": "calls getPrices and getBookURIs",
        "params": {
          "_bookIds": "the ids of the books which their information is needed"
        },
        "returns": {
          "URIs": "a string of URIs with each URI separated by a \" \"",
          "bookPrices": "an array of the price of each book in it's corresponding index in _bookIds"
        }
      },
      "getPrice(uint256)": {
        "params": {
          "_bookId": "the book's price needed"
        },
        "returns": {
          "price": "the price of the book on sale, it's zero if the book is not on sale"
        }
      },
      "getPrices(uint256[])": {
        "params": {
          "_bookIds": "an array of bookids"
        },
        "returns": {
          "bookPrices": "an array of the price of each book in its corresponding index in _bookIds"
        }
      },
      "list(uint256,uint256)": {
        "details": "the book's id and its price are added to the enumerable prices",
        "params": {
          "_bookId": "the id of the book to be listed",
          "_price": "the price to be sold for, it cannot be zero"
        }
      },
      "owner()": {
        "details": "Returns the address of the current owner."
      },
      "renounceOwnership()": {
        "details": "Leaves the contract without owner. It will not be possible to call `onlyOwner` functions anymore. Can only be called by the current owner. NOTE: Renouncing ownership will leave the contract without an owner, thereby removing any functionality that is only available to the owner."
      },
      "transferOwnership(address)": {
        "details": "Transfers ownership of the contract to a new account (`newOwner`). Can only be called by the current owner."
      },
      "withdraw()": {
        "details": "can be called by anyone and they are given all of their  balance in balances withdrawals must not be paused "
      },
      "withdrawPaused()": {
        "details": "Returns true if the contract is paused, and false otherwise."
      }
    },
    "stateVariables": {
      "balances": {
        "return": "the number of books owned by an address"
      }
    },
    "title": "A BookShop",
    "version": 1
  },
  "userdoc": {
    "events": {
      "List(address,uint256,uint256)": {
        "notice": "events"
      }
    },
    "kind": "user",
    "methods": {
      "buy(uint256)": {
        "notice": "Lets a buyer pay for the book with at least the specified price"
      },
      "constructor": "Initializes the contract ",
      "deList(uint256)": {
        "notice": "Used to remove a book from sale"
      },
      "getAllBooksOnSale()": {
        "notice": "Gets all the books on sale"
      },
      "getBookInfo(uint256)": {
        "notice": "Gets the URI and price of a book"
      },
      "getBookURIs(uint256[])": {
        "notice": "Gets the URIs of a list of books"
      },
      "getBooks(address)": {
        "notice": "Gets all the bookIds, bookPrices, and URIs of books owned by an address Each index in the return values except URIs contain the information of a single book"
      },
      "getBooksInfo(uint256[])": {
        "notice": "Gets the URI and the price of a list of books"
      },
      "getOpenBooks()": {
        "notice": "Used to get the address of the contract holding the books"
      },
      "getPrice(uint256)": {
        "notice": "Used to get the price of a book on sale"
      },
      "getPrices(uint256[])": {
        "notice": "Gets the price of a list of book ids"
      },
      "list(uint256,uint256)": {
        "notice": "Used to put a book up for sale"
      },
      "pauseBuy()": {
        "notice": "Pauses the buy function and is only callable by the contract owner"
      },
      "pauseWithdraw()": {
        "notice": "Pauses the withdraw function and is only callable by the contract owner"
      },
      "unPauseBuy()": {
        "notice": "Unpauses the buy function and is only callable by the contract owner"
      },
      "unPauseWithdraw()": {
        "notice": "Unpauses the withdraw function and is only callable by the contract owner"
      },
      "withdraw()": {
        "notice": "Allows anyone withthdraw their proceeds from book sales"
      }
    },
    "version": 1
  }
}