{
  "contractName": "OpenBooks",
  "abi": [
    {
      "inputs": [
        {
          "internalType": "string",
          "name": "_baseURI",
          "type": "string"
        }
      ],
      "stateMutability": "nonpayable",
      "type": "constructor"
    },
    {
      "anonymous": false,
      "inputs": [
        {
          "indexed": true,
          "internalType": "address",
          "name": "owner",
          "type": "address"
        },
        {
          "indexed": true,
          "internalType": "address",
          "name": "approved",
          "type": "address"
        },
        {
          "indexed": true,
          "internalType": "uint256",
          "name": "tokenId",
          "type": "uint256"
        }
      ],
      "name": "Approval",
      "type": "event"
    },
    {
      "anonymous": false,
      "inputs": [
        {
          "indexed": true,
          "internalType": "address",
          "name": "owner",
          "type": "address"
        },
        {
          "indexed": true,
          "internalType": "address",
          "name": "operator",
          "type": "address"
        },
        {
          "indexed": false,
          "internalType": "bool",
          "name": "approved",
          "type": "bool"
        }
      ],
      "name": "ApprovalForAll",
      "type": "event"
    },
    {
      "anonymous": false,
      "inputs": [
        {
          "indexed": true,
          "internalType": "address",
          "name": "previousOwner",
          "type": "address"
        },
        {
          "indexed": true,
          "internalType": "address",
          "name": "newOwner",
          "type": "address"
        }
      ],
      "name": "OwnershipTransferred",
      "type": "event"
    },
    {
      "anonymous": false,
      "inputs": [
        {
          "indexed": true,
          "internalType": "address",
          "name": "from",
          "type": "address"
        },
        {
          "indexed": true,
          "internalType": "address",
          "name": "to",
          "type": "address"
        },
        {
          "indexed": true,
          "internalType": "uint256",
          "name": "tokenId",
          "type": "uint256"
        }
      ],
      "name": "Transfer",
      "type": "event"
    },
    {
      "inputs": [
        {
          "internalType": "address",
          "name": "to",
          "type": "address"
        },
        {
          "internalType": "uint256",
          "name": "tokenId",
          "type": "uint256"
        }
      ],
      "name": "approve",
      "outputs": [],
      "stateMutability": "nonpayable",
      "type": "function"
    },
    {
      "inputs": [
        {
          "internalType": "address",
          "name": "owner",
          "type": "address"
        }
      ],
      "name": "balanceOf",
      "outputs": [
        {
          "internalType": "uint256",
          "name": "",
          "type": "uint256"
        }
      ],
      "stateMutability": "view",
      "type": "function",
      "constant": true
    },
    {
      "inputs": [],
      "name": "baseURI",
      "outputs": [
        {
          "internalType": "string",
          "name": "",
          "type": "string"
        }
      ],
      "stateMutability": "view",
      "type": "function",
      "constant": true
    },
    {
      "inputs": [
        {
          "internalType": "uint256",
          "name": "tokenId",
          "type": "uint256"
        }
      ],
      "name": "getApproved",
      "outputs": [
        {
          "internalType": "address",
          "name": "",
          "type": "address"
        }
      ],
      "stateMutability": "view",
      "type": "function",
      "constant": true
    },
    {
      "inputs": [
        {
          "internalType": "address",
          "name": "owner",
          "type": "address"
        },
        {
          "internalType": "address",
          "name": "operator",
          "type": "address"
        }
      ],
      "name": "isApprovedForAll",
      "outputs": [
        {
          "internalType": "bool",
          "name": "",
          "type": "bool"
        }
      ],
      "stateMutability": "view",
      "type": "function",
      "constant": true
    },
    {
      "inputs": [],
      "name": "name",
      "outputs": [
        {
          "internalType": "string",
          "name": "",
          "type": "string"
        }
      ],
      "stateMutability": "view",
      "type": "function",
      "constant": true
    },
    {
      "inputs": [],
      "name": "owner",
      "outputs": [
        {
          "internalType": "address",
          "name": "",
          "type": "address"
        }
      ],
      "stateMutability": "view",
      "type": "function",
      "constant": true
    },
    {
      "inputs": [
        {
          "internalType": "uint256",
          "name": "tokenId",
          "type": "uint256"
        }
      ],
      "name": "ownerOf",
      "outputs": [
        {
          "internalType": "address",
          "name": "",
          "type": "address"
        }
      ],
      "stateMutability": "view",
      "type": "function",
      "constant": true
    },
    {
      "inputs": [],
      "name": "renounceOwnership",
      "outputs": [],
      "stateMutability": "nonpayable",
      "type": "function"
    },
    {
      "inputs": [
        {
          "internalType": "address",
          "name": "from",
          "type": "address"
        },
        {
          "internalType": "address",
          "name": "to",
          "type": "address"
        },
        {
          "internalType": "uint256",
          "name": "tokenId",
          "type": "uint256"
        }
      ],
      "name": "safeTransferFrom",
      "outputs": [],
      "stateMutability": "nonpayable",
      "type": "function"
    },
    {
      "inputs": [
        {
          "internalType": "address",
          "name": "from",
          "type": "address"
        },
        {
          "internalType": "address",
          "name": "to",
          "type": "address"
        },
        {
          "internalType": "uint256",
          "name": "tokenId",
          "type": "uint256"
        },
        {
          "internalType": "bytes",
          "name": "_data",
          "type": "bytes"
        }
      ],
      "name": "safeTransferFrom",
      "outputs": [],
      "stateMutability": "nonpayable",
      "type": "function"
    },
    {
      "inputs": [
        {
          "internalType": "address",
          "name": "operator",
          "type": "address"
        },
        {
          "internalType": "bool",
          "name": "approved",
          "type": "bool"
        }
      ],
      "name": "setApprovalForAll",
      "outputs": [],
      "stateMutability": "nonpayable",
      "type": "function"
    },
    {
      "inputs": [
        {
          "internalType": "bytes4",
          "name": "interfaceId",
          "type": "bytes4"
        }
      ],
      "name": "supportsInterface",
      "outputs": [
        {
          "internalType": "bool",
          "name": "",
          "type": "bool"
        }
      ],
      "stateMutability": "view",
      "type": "function",
      "constant": true
    },
    {
      "inputs": [],
      "name": "symbol",
      "outputs": [
        {
          "internalType": "string",
          "name": "",
          "type": "string"
        }
      ],
      "stateMutability": "view",
      "type": "function",
      "constant": true
    },
    {
      "inputs": [
        {
          "internalType": "uint256",
          "name": "index",
          "type": "uint256"
        }
      ],
      "name": "tokenByIndex",
      "outputs": [
        {
          "internalType": "uint256",
          "name": "",
          "type": "uint256"
        }
      ],
      "stateMutability": "view",
      "type": "function",
      "constant": true
    },
    {
      "inputs": [
        {
          "internalType": "address",
          "name": "owner",
          "type": "address"
        },
        {
          "internalType": "uint256",
          "name": "index",
          "type": "uint256"
        }
      ],
      "name": "tokenOfOwnerByIndex",
      "outputs": [
        {
          "internalType": "uint256",
          "name": "",
          "type": "uint256"
        }
      ],
      "stateMutability": "view",
      "type": "function",
      "constant": true
    },
    {
      "inputs": [
        {
          "internalType": "uint256",
          "name": "tokenId",
          "type": "uint256"
        }
      ],
      "name": "tokenURI",
      "outputs": [
        {
          "internalType": "string",
          "name": "",
          "type": "string"
        }
      ],
      "stateMutability": "view",
      "type": "function",
      "constant": true
    },
    {
      "inputs": [],
      "name": "totalSupply",
      "outputs": [
        {
          "internalType": "uint256",
          "name": "",
          "type": "uint256"
        }
      ],
      "stateMutability": "view",
      "type": "function",
      "constant": true
    },
    {
      "inputs": [
        {
          "internalType": "address",
          "name": "from",
          "type": "address"
        },
        {
          "internalType": "address",
          "name": "to",
          "type": "address"
        },
        {
          "internalType": "uint256",
          "name": "tokenId",
          "type": "uint256"
        }
      ],
      "name": "transferFrom",
      "outputs": [],
      "stateMutability": "nonpayable",
      "type": "function"
    },
    {
      "inputs": [
        {
          "internalType": "address",
          "name": "newOwner",
          "type": "address"
        }
      ],
      "name": "transferOwnership",
      "outputs": [],
      "stateMutability": "nonpayable",
      "type": "function"
    },
    {
      "inputs": [
        {
          "internalType": "string",
          "name": "_tokenURI",
          "type": "string"
        }
      ],
      "name": "mint",
      "outputs": [],
      "stateMutability": "nonpayable",
      "type": "function"
    },
    {
      "inputs": [
        {
          "internalType": "uint256",
          "name": "_tokenId",
          "type": "uint256"
        }
      ],
      "name": "burn",
      "outputs": [],
      "stateMutability": "nonpayable",
      "type": "function"
    },
    {
      "inputs": [
        {
          "internalType": "uint256",
          "name": "_tokenId",
          "type": "uint256"
        }
      ],
      "name": "exists",
      "outputs": [
        {
          "internalType": "bool",
          "name": "",
          "type": "bool"
        }
      ],
      "stateMutability": "view",
      "type": "function",
      "constant": true
    },
    {
      "inputs": [
        {
          "internalType": "string",
          "name": "_baseURI",
          "type": "string"
        }
      ],
      "name": "setBaseURI",
      "outputs": [],
      "stateMutability": "nonpayable",
      "type": "function"
    }
  ],
  "bytecode": "0x60806040523480156200001157600080fd5b5060405162003a3138038062003a31833981810160405260208110156200003757600080fd5b81019080805160405193929190846401000000008211156200005857600080fd5b838201915060208201858111156200006f57600080fd5b82518660018202830111640100000000821117156200008d57600080fd5b8083526020830192505050908051906020019080838360005b83811015620000c3578082015181840152602081019050620000a6565b50505050905090810190601f168015620000f15780820380516001836020036101000a031916815260200191505b506040525050506040518060400160405280600981526020017f4f70656e426f6f6b7300000000000000000000000000000000000000000000008152506040518060400160405280600381526020017f4f50420000000000000000000000000000000000000000000000000000000000815250600062000176620002c060201b60201c565b9050806000806101000a81548173ffffffffffffffffffffffffffffffffffffffff021916908373ffffffffffffffffffffffffffffffffffffffff1602179055508073ffffffffffffffffffffffffffffffffffffffff16600073ffffffffffffffffffffffffffffffffffffffff167f8be0079c531659141344cd1fd0a4f28419497f9722a3daafe3b4186f6b6457e060405160405180910390a3506200022c6301ffc9a760e01b620002c860201b60201c565b816007908051906020019062000244929190620003ed565b5080600890805190602001906200025d929190620003ed565b50620002766380ac58cd60e01b620002c860201b60201c565b6200028e635b5e139f60e01b620002c860201b60201c565b620002a663780e9d6360e01b620002c860201b60201c565b5050620002b981620003d160201b60201c565b5062000493565b600033905090565b63ffffffff60e01b817bffffffffffffffffffffffffffffffffffffffffffffffffffffffff1916141562000365576040517f08c379a000000000000000000000000000000000000000000000000000000000815260040180806020018281038252601c8152602001807f4552433136353a20696e76616c696420696e746572666163652069640000000081525060200191505060405180910390fd5b6001806000837bffffffffffffffffffffffffffffffffffffffffffffffffffffffff19167bffffffffffffffffffffffffffffffffffffffffffffffffffffffff1916815260200190815260200160002060006101000a81548160ff02191690831515021790555050565b80600a9080519060200190620003e9929190620003ed565b5050565b828054600181600116156101000203166002900490600052602060002090601f016020900481019282601f106200043057805160ff191683800117855562000461565b8280016001018555821562000461579182015b828111156200046057825182559160200191906001019062000443565b5b50905062000470919062000474565b5090565b5b808211156200048f57600081600090555060010162000475565b5090565b61358e80620004a36000396000f3fe608060405234801561001057600080fd5b50600436106101585760003560e01c80636352211e116100c3578063a22cb4651161007c578063a22cb46514610766578063b88d4fde146107b6578063c87b56dd146108bb578063d85d3d2714610962578063e985e9c5146109db578063f2fde38b14610a5557610158565b80636352211e146105725780636c0360eb146105ca57806370a082311461064d578063715018a6146106a55780638da5cb5b146106af57806395d89b41146106e357610158565b80632f745c59116101155780632f745c591461037557806342842e0e146103d757806342966c68146104455780634f558e79146104735780634f6ccce7146104b757806355f804b3146104f957610158565b806301ffc9a71461015d57806306fdde03146101c0578063081812fc14610243578063095ea7b31461029b57806318160ddd146102e957806323b872dd14610307575b600080fd5b6101a86004803603602081101561017357600080fd5b8101908080357bffffffffffffffffffffffffffffffffffffffffffffffffffffffff19169060200190929190505050610a99565b60405180821515815260200191505060405180910390f35b6101c8610b01565b6040518080602001828103825283818151815260200191508051906020019080838360005b838110156102085780820151818401526020810190506101ed565b50505050905090810190601f1680156102355780820380516001836020036101000a031916815260200191505b509250505060405180910390f35b61026f6004803603602081101561025957600080fd5b8101908080359060200190929190505050610ba3565b604051808273ffffffffffffffffffffffffffffffffffffffff16815260200191505060405180910390f35b6102e7600480360360408110156102b157600080fd5b81019080803573ffffffffffffffffffffffffffffffffffffffff16906020019092919080359060200190929190505050610c3e565b005b6102f1610d82565b6040518082815260200191505060405180910390f35b6103736004803603606081101561031d57600080fd5b81019080803573ffffffffffffffffffffffffffffffffffffffff169060200190929190803573ffffffffffffffffffffffffffffffffffffffff16906020019092919080359060200190929190505050610d93565b005b6103c16004803603604081101561038b57600080fd5b81019080803573ffffffffffffffffffffffffffffffffffffffff16906020019092919080359060200190929190505050610e09565b6040518082815260200191505060405180910390f35b610443600480360360608110156103ed57600080fd5b81019080803573ffffffffffffffffffffffffffffffffffffffff169060200190929190803573ffffffffffffffffffffffffffffffffffffffff16906020019092919080359060200190929190505050610e64565b005b6104716004803603602081101561045b57600080fd5b8101908080359060200190929190505050610e84565b005b61049f6004803603602081101561048957600080fd5b8101908080359060200190929190505050610e90565b60405180821515815260200191505060405180910390f35b6104e3600480360360208110156104cd57600080fd5b8101908080359060200190929190505050610ea2565b6040518082815260200191505060405180910390f35b6105706004803603602081101561050f57600080fd5b810190808035906020019064010000000081111561052c57600080fd5b82018360208201111561053e57600080fd5b8035906020019184600183028401116401000000008311171561056057600080fd5b9091929391929390505050610ec5565b005b61059e6004803603602081101561058857600080fd5b8101908080359060200190929190505050610fde565b604051808273ffffffffffffffffffffffffffffffffffffffff16815260200191505060405180910390f35b6105d2611015565b6040518080602001828103825283818151815260200191508051906020019080838360005b838110156106125780820151818401526020810190506105f7565b50505050905090810190601f16801561063f5780820380516001836020036101000a031916815260200191505b509250505060405180910390f35b61068f6004803603602081101561066357600080fd5b81019080803573ffffffffffffffffffffffffffffffffffffffff1690602001909291905050506110b7565b6040518082815260200191505060405180910390f35b6106ad61118c565b005b6106b7611312565b604051808273ffffffffffffffffffffffffffffffffffffffff16815260200191505060405180910390f35b6106eb61133b565b6040518080602001828103825283818151815260200191508051906020019080838360005b8381101561072b578082015181840152602081019050610710565b50505050905090810190601f1680156107585780820380516001836020036101000a031916815260200191505b509250505060405180910390f35b6107b46004803603604081101561077c57600080fd5b81019080803573ffffffffffffffffffffffffffffffffffffffff1690602001909291908035151590602001909291905050506113dd565b005b6108b9600480360360808110156107cc57600080fd5b81019080803573ffffffffffffffffffffffffffffffffffffffff169060200190929190803573ffffffffffffffffffffffffffffffffffffffff169060200190929190803590602001909291908035906020019064010000000081111561083357600080fd5b82018360208201111561084557600080fd5b8035906020019184600183028401116401000000008311171561086757600080fd5b91908080601f016020809104026020016040519081016040528093929190818152602001838380828437600081840152601f19601f820116905080830192505050505050509192919290505050611593565b005b6108e7600480360360208110156108d157600080fd5b810190808035906020019092919050505061160b565b6040518080602001828103825283818151815260200191508051906020019080838360005b8381101561092757808201518184015260208101905061090c565b50505050905090810190601f1680156109545780820380516001836020036101000a031916815260200191505b509250505060405180910390f35b6109d96004803603602081101561097857600080fd5b810190808035906020019064010000000081111561099557600080fd5b8201836020820111156109a757600080fd5b803590602001918460018302840111640100000000831117156109c957600080fd5b90919293919293905050506118f4565b005b610a3d600480360360408110156109f157600080fd5b81019080803573ffffffffffffffffffffffffffffffffffffffff169060200190929190803573ffffffffffffffffffffffffffffffffffffffff169060200190929190505050611980565b60405180821515815260200191505060405180910390f35b610a9760048036036020811015610a6b57600080fd5b81019080803573ffffffffffffffffffffffffffffffffffffffff169060200190929190505050611a14565b005b600060016000837bffffffffffffffffffffffffffffffffffffffffffffffffffffffff19167bffffffffffffffffffffffffffffffffffffffffffffffffffffffff1916815260200190815260200160002060009054906101000a900460ff169050919050565b606060078054600181600116156101000203166002900480601f016020809104026020016040519081016040528092919081815260200182805460018160011615610100020316600290048015610b995780601f10610b6e57610100808354040283529160200191610b99565b820191906000526020600020905b815481529060010190602001808311610b7c57829003601f168201915b5050505050905090565b6000610bae82611c1f565b610c03576040517f08c379a000000000000000000000000000000000000000000000000000000000815260040180806020018281038252602c815260200180613457602c913960400191505060405180910390fd5b6005600083815260200190815260200160002060009054906101000a900473ffffffffffffffffffffffffffffffffffffffff169050919050565b6000610c4982610fde565b90508073ffffffffffffffffffffffffffffffffffffffff168373ffffffffffffffffffffffffffffffffffffffff161415610cd0576040517f08c379a00000000000000000000000000000000000000000000000000000000081526004018080602001828103825260218152602001806135076021913960400191505060405180910390fd5b8073ffffffffffffffffffffffffffffffffffffffff16610cef611c3c565b73ffffffffffffffffffffffffffffffffffffffff161480610d1e5750610d1d81610d18611c3c565b611980565b5b610d73576040517f08c379a00000000000000000000000000000000000000000000000000000000081526004018080602001828103825260388152602001806133aa6038913960400191505060405180910390fd5b610d7d8383611c44565b505050565b6000610d8e6003611cfd565b905090565b610da4610d9e611c3c565b82611d12565b610df9576040517f08c379a00000000000000000000000000000000000000000000000000000000081526004018080602001828103825260318152602001806135286031913960400191505060405180910390fd5b610e04838383611e06565b505050565b6000610e5c82600260008673ffffffffffffffffffffffffffffffffffffffff1673ffffffffffffffffffffffffffffffffffffffff16815260200190815260200160002061204990919063ffffffff16565b905092915050565b610e7f83838360405180602001604052806000815250611593565b505050565b610e8d81612063565b50565b6000610e9b82611c1f565b9050919050565b600080610eb983600361219d90919063ffffffff16565b50905080915050919050565b610ecd611c3c565b73ffffffffffffffffffffffffffffffffffffffff1660008054906101000a900473ffffffffffffffffffffffffffffffffffffffff1673ffffffffffffffffffffffffffffffffffffffff1614610f8d576040517f08c379a00000000000000000000000000000000000000000000000000000000081526004018080602001828103825260208152602001807f4f776e61626c653a2063616c6c6572206973206e6f7420746865206f776e657281525060200191505060405180910390fd5b610fda82828080601f016020809104026020016040519081016040528093929190818152602001838380828437600081840152601f19601f820116905080830192505050505050506121c9565b5050565b600061100e8260405180606001604052806029815260200161340c6029913960036121e39092919063ffffffff16565b9050919050565b6060600a8054600181600116156101000203166002900480601f0160208091040260200160405190810160405280929190818152602001828054600181600116156101000203166002900480156110ad5780601f10611082576101008083540402835291602001916110ad565b820191906000526020600020905b81548152906001019060200180831161109057829003601f168201915b5050505050905090565b60008073ffffffffffffffffffffffffffffffffffffffff168273ffffffffffffffffffffffffffffffffffffffff16141561113e576040517f08c379a000000000000000000000000000000000000000000000000000000000815260040180806020018281038252602a8152602001806133e2602a913960400191505060405180910390fd5b611185600260008473ffffffffffffffffffffffffffffffffffffffff1673ffffffffffffffffffffffffffffffffffffffff168152602001908152602001600020612202565b9050919050565b611194611c3c565b73ffffffffffffffffffffffffffffffffffffffff1660008054906101000a900473ffffffffffffffffffffffffffffffffffffffff1673ffffffffffffffffffffffffffffffffffffffff1614611254576040517f08c379a00000000000000000000000000000000000000000000000000000000081526004018080602001828103825260208152602001807f4f776e61626c653a2063616c6c6572206973206e6f7420746865206f776e657281525060200191505060405180910390fd5b600073ffffffffffffffffffffffffffffffffffffffff1660008054906101000a900473ffffffffffffffffffffffffffffffffffffffff1673ffffffffffffffffffffffffffffffffffffffff167f8be0079c531659141344cd1fd0a4f28419497f9722a3daafe3b4186f6b6457e060405160405180910390a360008060006101000a81548173ffffffffffffffffffffffffffffffffffffffff021916908373ffffffffffffffffffffffffffffffffffffffff160217905550565b60008060009054906101000a900473ffffffffffffffffffffffffffffffffffffffff16905090565b606060088054600181600116156101000203166002900480601f0160208091040260200160405190810160405280929190818152602001828054600181600116156101000203166002900480156113d35780601f106113a8576101008083540402835291602001916113d3565b820191906000526020600020905b8154815290600101906020018083116113b657829003601f168201915b5050505050905090565b6113e5611c3c565b73ffffffffffffffffffffffffffffffffffffffff168273ffffffffffffffffffffffffffffffffffffffff161415611486576040517f08c379a00000000000000000000000000000000000000000000000000000000081526004018080602001828103825260198152602001807f4552433732313a20617070726f766520746f2063616c6c65720000000000000081525060200191505060405180910390fd5b8060066000611493611c3c565b73ffffffffffffffffffffffffffffffffffffffff1673ffffffffffffffffffffffffffffffffffffffff16815260200190815260200160002060008473ffffffffffffffffffffffffffffffffffffffff1673ffffffffffffffffffffffffffffffffffffffff16815260200190815260200160002060006101000a81548160ff0219169083151502179055508173ffffffffffffffffffffffffffffffffffffffff16611540611c3c565b73ffffffffffffffffffffffffffffffffffffffff167f17307eab39ab6107e8899845ad3d59bd9653f200f220920489ca2b5937696c318360405180821515815260200191505060405180910390a35050565b6115a461159e611c3c565b83611d12565b6115f9576040517f08c379a00000000000000000000000000000000000000000000000000000000081526004018080602001828103825260318152602001806135286031913960400191505060405180910390fd5b61160584848484612217565b50505050565b606061161682611c1f565b61166b576040517f08c379a000000000000000000000000000000000000000000000000000000000815260040180806020018281038252602f8152602001806134d8602f913960400191505060405180910390fd5b6060600960008481526020019081526020016000208054600181600116156101000203166002900480601f0160208091040260200160405190810160405280929190818152602001828054600181600116156101000203166002900480156117145780601f106116e957610100808354040283529160200191611714565b820191906000526020600020905b8154815290600101906020018083116116f757829003601f168201915b505050505090506000600a805460018160011615610100020316600290049050141561174357809150506118ef565b60008151111561181c57600a8160405160200180838054600181600116156101000203166002900480156117ae5780601f1061178c5761010080835404028352918201916117ae565b820191906000526020600020905b81548152906001019060200180831161179a575b505082805190602001908083835b602083106117df57805182526020820191506020810190506020830392506117bc565b6001836020036101000a038019825116818451168082178552505050505050905001925050506040516020818303038152906040529150506118ef565b600a61182784612289565b60405160200180838054600181600116156101000203166002900480156118855780601f10611863576101008083540402835291820191611885565b820191906000526020600020905b815481529060010190602001808311611871575b505082805190602001908083835b602083106118b65780518252602082019150602081019050602083039250611893565b6001836020036101000a038019825116818451168082178552505050505050905001925050506040516020818303038152906040529150505b919050565b60006119116001611903610d82565b6123d090919063ffffffff16565b905061192d338260405180602001604052806000815250612458565b61197b8184848080601f016020809104026020016040519081016040528093929190818152602001838380828437600081840152601f19601f820116905080830192505050505050506124c9565b505050565b6000600660008473ffffffffffffffffffffffffffffffffffffffff1673ffffffffffffffffffffffffffffffffffffffff16815260200190815260200160002060008373ffffffffffffffffffffffffffffffffffffffff1673ffffffffffffffffffffffffffffffffffffffff16815260200190815260200160002060009054906101000a900460ff16905092915050565b611a1c611c3c565b73ffffffffffffffffffffffffffffffffffffffff1660008054906101000a900473ffffffffffffffffffffffffffffffffffffffff1673ffffffffffffffffffffffffffffffffffffffff1614611adc576040517f08c379a00000000000000000000000000000000000000000000000000000000081526004018080602001828103825260208152602001807f4f776e61626c653a2063616c6c6572206973206e6f7420746865206f776e657281525060200191505060405180910390fd5b600073ffffffffffffffffffffffffffffffffffffffff168173ffffffffffffffffffffffffffffffffffffffff161415611b62576040517f08c379a00000000000000000000000000000000000000000000000000000000081526004018080602001828103825260268152602001806133346026913960400191505060405180910390fd5b8073ffffffffffffffffffffffffffffffffffffffff1660008054906101000a900473ffffffffffffffffffffffffffffffffffffffff1673ffffffffffffffffffffffffffffffffffffffff167f8be0079c531659141344cd1fd0a4f28419497f9722a3daafe3b4186f6b6457e060405160405180910390a3806000806101000a81548173ffffffffffffffffffffffffffffffffffffffff021916908373ffffffffffffffffffffffffffffffffffffffff16021790555050565b6000611c3582600361255390919063ffffffff16565b9050919050565b600033905090565b816005600083815260200190815260200160002060006101000a81548173ffffffffffffffffffffffffffffffffffffffff021916908373ffffffffffffffffffffffffffffffffffffffff160217905550808273ffffffffffffffffffffffffffffffffffffffff16611cb783610fde565b73ffffffffffffffffffffffffffffffffffffffff167f8c5be1e5ebec7d5bd14f71427d1e84f3dd0314c0f7b2291e5b200ac8c7c3b92560405160405180910390a45050565b6000611d0b8260000161256d565b9050919050565b6000611d1d82611c1f565b611d72576040517f08c379a000000000000000000000000000000000000000000000000000000000815260040180806020018281038252602c81526020018061337e602c913960400191505060405180910390fd5b6000611d7d83610fde565b90508073ffffffffffffffffffffffffffffffffffffffff168473ffffffffffffffffffffffffffffffffffffffff161480611dec57508373ffffffffffffffffffffffffffffffffffffffff16611dd484610ba3565b73ffffffffffffffffffffffffffffffffffffffff16145b80611dfd5750611dfc8185611980565b5b91505092915050565b8273ffffffffffffffffffffffffffffffffffffffff16611e2682610fde565b73ffffffffffffffffffffffffffffffffffffffff1614611e92576040517f08c379a00000000000000000000000000000000000000000000000000000000081526004018080602001828103825260298152602001806134af6029913960400191505060405180910390fd5b600073ffffffffffffffffffffffffffffffffffffffff168273ffffffffffffffffffffffffffffffffffffffff161415611f18576040517f08c379a000000000000000000000000000000000000000000000000000000000815260040180806020018281038252602481526020018061335a6024913960400191505060405180910390fd5b611f2383838361257e565b611f2e600082611c44565b611f7f81600260008673ffffffffffffffffffffffffffffffffffffffff1673ffffffffffffffffffffffffffffffffffffffff16815260200190815260200160002061258390919063ffffffff16565b50611fd181600260008573ffffffffffffffffffffffffffffffffffffffff1673ffffffffffffffffffffffffffffffffffffffff16815260200190815260200160002061259d90919063ffffffff16565b50611fe8818360036125b79092919063ffffffff16565b50808273ffffffffffffffffffffffffffffffffffffffff168473ffffffffffffffffffffffffffffffffffffffff167fddf252ad1be2c89b69c2b068fc378daa952ba7f163c4a11628f55a4df523b3ef60405160405180910390a4505050565b600061205883600001836125ec565b60001c905092915050565b600061206e82610fde565b905061207c8160008461257e565b612087600083611c44565b600060096000848152602001908152602001600020805460018160011615610100020316600290049050146120d6576009600083815260200190815260200160002060006120d591906131fa565b5b61212782600260008473ffffffffffffffffffffffffffffffffffffffff1673ffffffffffffffffffffffffffffffffffffffff16815260200190815260200160002061258390919063ffffffff16565b5061213c82600361266f90919063ffffffff16565b5081600073ffffffffffffffffffffffffffffffffffffffff168273ffffffffffffffffffffffffffffffffffffffff167fddf252ad1be2c89b69c2b068fc378daa952ba7f163c4a11628f55a4df523b3ef60405160405180910390a45050565b6000806000806121b08660000186612689565b915091508160001c8160001c9350935050509250929050565b80600a90805190602001906121df929190613242565b5050565b60006121f6846000018460001b84612722565b60001c90509392505050565b600061221082600001612818565b9050919050565b612222848484611e06565b61222e84848484612829565b612283576040517f08c379a00000000000000000000000000000000000000000000000000000000081526004018080602001828103825260328152602001806133026032913960400191505060405180910390fd5b50505050565b606060008214156122d1576040518060400160405280600181526020017f300000000000000000000000000000000000000000000000000000000000000081525090506123cb565b600082905060005b600082146122fb578080600101915050600a82816122f357fe5b0491506122d9565b60608167ffffffffffffffff8111801561231457600080fd5b506040519080825280601f01601f1916602001820160405280156123475781602001600182028036833780820191505090505b50905060006001830390508593505b600084146123c357600a848161236857fe5b0660300160f81b8282806001900393508151811061238257fe5b60200101907effffffffffffffffffffffffffffffffffffffffffffffffffffffffffffff1916908160001a905350600a84816123bb57fe5b049350612356565b819450505050505b919050565b60008082840190508381101561244e576040517f08c379a000000000000000000000000000000000000000000000000000000000815260040180806020018281038252601b8152602001807f536166654d6174683a206164646974696f6e206f766572666c6f77000000000081525060200191505060405180910390fd5b8091505092915050565b6124628383612a42565b61246f6000848484612829565b6124c4576040517f08c379a00000000000000000000000000000000000000000000000000000000081526004018080602001828103825260328152602001806133026032913960400191505060405180910390fd5b505050565b6124d282611c1f565b612527576040517f08c379a000000000000000000000000000000000000000000000000000000000815260040180806020018281038252602c815260200180613483602c913960400191505060405180910390fd5b8060096000848152602001908152602001600020908051906020019061254e929190613242565b505050565b6000612565836000018360001b612c36565b905092915050565b600081600001805490509050919050565b505050565b6000612595836000018360001b612c59565b905092915050565b60006125af836000018360001b612d41565b905092915050565b60006125e3846000018460001b8473ffffffffffffffffffffffffffffffffffffffff1660001b612db1565b90509392505050565b60008183600001805490501161264d576040517f08c379a00000000000000000000000000000000000000000000000000000000081526004018080602001828103825260228152602001806132e06022913960400191505060405180910390fd5b82600001828154811061265c57fe5b9060005260206000200154905092915050565b6000612681836000018360001b612e8d565b905092915050565b600080828460000180549050116126eb576040517f08c379a00000000000000000000000000000000000000000000000000000000081526004018080602001828103825260228152602001806134356022913960400191505060405180910390fd5b60008460000184815481106126fc57fe5b906000526020600020906002020190508060000154816001015492509250509250929050565b600080846001016000858152602001908152602001600020549050600081141583906127e9576040517f08c379a00000000000000000000000000000000000000000000000000000000081526004018080602001828103825283818151815260200191508051906020019080838360005b838110156127ae578082015181840152602081019050612793565b50505050905090810190601f1680156127db5780820380516001836020036101000a031916815260200191505b509250505060405180910390fd5b508460000160018203815481106127fc57fe5b9060005260206000209060020201600101549150509392505050565b600081600001805490509050919050565b600061284a8473ffffffffffffffffffffffffffffffffffffffff16612fa6565b6128575760019050612a3a565b60606129c163150b7a0260e01b61286c611c3c565b888787604051602401808573ffffffffffffffffffffffffffffffffffffffff1681526020018473ffffffffffffffffffffffffffffffffffffffff16815260200183815260200180602001828103825283818151815260200191508051906020019080838360005b838110156128f05780820151818401526020810190506128d5565b50505050905090810190601f16801561291d5780820380516001836020036101000a031916815260200191505b5095505050505050604051602081830303815290604052907bffffffffffffffffffffffffffffffffffffffffffffffffffffffff19166020820180517bffffffffffffffffffffffffffffffffffffffffffffffffffffffff8381831617835250505050604051806060016040528060328152602001613302603291398773ffffffffffffffffffffffffffffffffffffffff16612fb99092919063ffffffff16565b905060008180602001905160208110156129da57600080fd5b8101908080519060200190929190505050905063150b7a0260e01b7bffffffffffffffffffffffffffffffffffffffffffffffffffffffff1916817bffffffffffffffffffffffffffffffffffffffffffffffffffffffff191614925050505b949350505050565b600073ffffffffffffffffffffffffffffffffffffffff168273ffffffffffffffffffffffffffffffffffffffff161415612ae5576040517f08c379a00000000000000000000000000000000000000000000000000000000081526004018080602001828103825260208152602001807f4552433732313a206d696e7420746f20746865207a65726f206164647265737381525060200191505060405180910390fd5b612aee81611c1f565b15612b61576040517f08c379a000000000000000000000000000000000000000000000000000000000815260040180806020018281038252601c8152602001807f4552433732313a20746f6b656e20616c7265616479206d696e7465640000000081525060200191505060405180910390fd5b612b6d6000838361257e565b612bbe81600260008573ffffffffffffffffffffffffffffffffffffffff1673ffffffffffffffffffffffffffffffffffffffff16815260200190815260200160002061259d90919063ffffffff16565b50612bd5818360036125b79092919063ffffffff16565b50808273ffffffffffffffffffffffffffffffffffffffff16600073ffffffffffffffffffffffffffffffffffffffff167fddf252ad1be2c89b69c2b068fc378daa952ba7f163c4a11628f55a4df523b3ef60405160405180910390a45050565b600080836001016000848152602001908152602001600020541415905092915050565b60008083600101600084815260200190815260200160002054905060008114612d355760006001820390506000600186600001805490500390506000866000018281548110612ca457fe5b9060005260206000200154905080876000018481548110612cc157fe5b9060005260206000200181905550600183018760010160008381526020019081526020016000208190555086600001805480612cf957fe5b60019003818190600052602060002001600090559055866001016000878152602001908152602001600020600090556001945050505050612d3b565b60009150505b92915050565b6000612d4d8383612fd1565b612da6578260000182908060018154018082558091505060019003906000526020600020016000909190919091505582600001805490508360010160008481526020019081526020016000208190555060019050612dab565b600090505b92915050565b6000808460010160008581526020019081526020016000205490506000811415612e5857846000016040518060400160405280868152602001858152509080600181540180825580915050600190039060005260206000209060020201600090919091909150600082015181600001556020820151816001015550508460000180549050856001016000868152602001908152602001600020819055506001915050612e86565b82856000016001830381548110612e6b57fe5b90600052602060002090600202016001018190555060009150505b9392505050565b60008083600101600084815260200190815260200160002054905060008114612f9a5760006001820390506000600186600001805490500390506000866000018281548110612ed857fe5b9060005260206000209060020201905080876000018481548110612ef857fe5b9060005260206000209060020201600082015481600001556001820154816001015590505060018301876001016000836000015481526020019081526020016000208190555086600001805480612f4b57fe5b6001900381819060005260206000209060020201600080820160009055600182016000905550509055866001016000878152602001908152602001600020600090556001945050505050612fa0565b60009150505b92915050565b600080823b905060008111915050919050565b6060612fc88484600085612ff4565b90509392505050565b600080836001016000848152602001908152602001600020541415905092915050565b6060612fff85612fa6565b613071576040517f08c379a000000000000000000000000000000000000000000000000000000000815260040180806020018281038252601d8152602001807f416464726573733a2063616c6c20746f206e6f6e2d636f6e747261637400000081525060200191505060405180910390fd5b600060608673ffffffffffffffffffffffffffffffffffffffff1685876040518082805190602001908083835b602083106130c1578051825260208201915060208101905060208303925061309e565b6001836020036101000a03801982511681845116808217855250505050505090500191505060006040518083038185875af1925050503d8060008114613123576040519150601f19603f3d011682016040523d82523d6000602084013e613128565b606091505b5091509150811561313d5780925050506131f2565b6000815111156131505780518082602001fd5b836040517f08c379a00000000000000000000000000000000000000000000000000000000081526004018080602001828103825283818151815260200191508051906020019080838360005b838110156131b757808201518184015260208101905061319c565b50505050905090810190601f1680156131e45780820380516001836020036101000a031916815260200191505b509250505060405180910390fd5b949350505050565b50805460018160011615610100020316600290046000825580601f10613220575061323f565b601f01602090049060005260206000209081019061323e91906132c2565b5b50565b828054600181600116156101000203166002900490600052602060002090601f016020900481019282601f1061328357805160ff19168380011785556132b1565b828001600101855582156132b1579182015b828111156132b0578251825591602001919060010190613295565b5b5090506132be91906132c2565b5090565b5b808211156132db5760008160009055506001016132c3565b509056fe456e756d657261626c655365743a20696e646578206f7574206f6620626f756e64734552433732313a207472616e7366657220746f206e6f6e20455243373231526563656976657220696d706c656d656e7465724f776e61626c653a206e6577206f776e657220697320746865207a65726f20616464726573734552433732313a207472616e7366657220746f20746865207a65726f20616464726573734552433732313a206f70657261746f7220717565727920666f72206e6f6e6578697374656e7420746f6b656e4552433732313a20617070726f76652063616c6c6572206973206e6f74206f776e6572206e6f7220617070726f76656420666f7220616c6c4552433732313a2062616c616e636520717565727920666f7220746865207a65726f20616464726573734552433732313a206f776e657220717565727920666f72206e6f6e6578697374656e7420746f6b656e456e756d657261626c654d61703a20696e646578206f7574206f6620626f756e64734552433732313a20617070726f76656420717565727920666f72206e6f6e6578697374656e7420746f6b656e4552433732314d657461646174613a2055524920736574206f66206e6f6e6578697374656e7420746f6b656e4552433732313a207472616e73666572206f6620746f6b656e2074686174206973206e6f74206f776e4552433732314d657461646174613a2055524920717565727920666f72206e6f6e6578697374656e7420746f6b656e4552433732313a20617070726f76616c20746f2063757272656e74206f776e65724552433732313a207472616e736665722063616c6c6572206973206e6f74206f776e6572206e6f7220617070726f766564a26469706673582212200fdbeb1446c771457bc4ad33be96f39284da622c1a2839f5d7ddee339ba7baed64736f6c634300060c0033",
  "source": "// SPDX-License-Identifier: MIT\n\npragma solidity ^0.6.0;\n\n\nimport \"@openzeppelin/contracts/token/ERC721/ERC721.sol\";\nimport \"@openzeppelin/contracts/access/Ownable.sol\";\n\n/// @title A storage for book rights\n/// @author Ifebhor Odion Nonse\n/// @notice This contract is used to mint the rights to a book \n/// in form of a token which can then be sold on a marketplace\n/// @dev this is an ERC721 token\ncontract OpenBooks is Ownable, ERC721(\"OpenBooks\", \"OPB\"){\n\n    /// @notice Initializes the contract\n    /// @dev sets the _baseURI\n    /// @param _baseURI the string to be stored as _baseURI.  \n    constructor(string memory _baseURI) public{\n        _setBaseURI(_baseURI);\n    }\n\n    /// @notice Creates a new book \n    /// @dev mints a book with a unique a id\n    /// @param _tokenURI the URI of the books image\n    function mint(string calldata _tokenURI) external{\n        uint tokenId = totalSupply().add(1);\n        _safeMint(msg.sender, tokenId, \"\");\n        _setTokenURI(tokenId, _tokenURI);\n    }\n    \n    /// @notice Destroys a book\n    /// @dev removes the books id from the list and sends to a zero address\n    /// @param _tokenId the id of the book to be burnt\n    function burn(uint _tokenId) external{\n        _burn(_tokenId);\n    }\n    \n    /// @notice Used to check if a book  with an id exists\n    /// @param _tokenId the id of the book to be checked\n    /// @return a boolean, \"true\" if it exists and \"false\" if it doesn't\n    function exists(uint _tokenId) external view returns(bool){\n        return _exists(_tokenId);\n    }\n\n    /// @notice Changes the _baseURI to one supplied\n    /// @dev can only be called by the contract's owner    \n    /// @param _baseURI the new _baseURI\n    function setBaseURI(string calldata _baseURI)  external onlyOwner{\n        _setBaseURI(_baseURI);\n    }\n}",
  "sourcePath": "/home/nonseodion/Desktop/Codes/Blockchain/Crypto BookShop/contracts/OpenBooks.sol",
  "compiler": {
    "name": "solc",
    "version": "0.6.12+commit.27d51765.Emscripten.clang"
  },
  "schemaVersion": "3.0.20",
  "updatedAt": "2020-11-29T18:26:23.578Z",
  "networkType": "ethereum",
  "devdoc": {
    "author": "Ifebhor Odion Nonse",
    "details": "this is an ERC721 token",
    "kind": "dev",
    "methods": {
      "approve(address,uint256)": {
        "details": "See {IERC721-approve}."
      },
      "balanceOf(address)": {
        "details": "See {IERC721-balanceOf}."
      },
      "baseURI()": {
        "details": "Returns the base URI set via {_setBaseURI}. This will be automatically added as a prefix in {tokenURI} to each token's URI, or to the token ID if no specific URI is set for that token ID."
      },
      "burn(uint256)": {
        "details": "removes the books id from the list and sends to a zero address",
        "params": {
          "_tokenId": "the id of the book to be burnt"
        }
      },
      "constructor": {
        "details": "sets the _baseURI",
        "params": {
          "_baseURI": "the string to be stored as _baseURI.  "
        }
      },
      "exists(uint256)": {
        "params": {
          "_tokenId": "the id of the book to be checked"
        },
        "returns": {
          "_0": "a boolean, \"true\" if it exists and \"false\" if it doesn't"
        }
      },
      "getApproved(uint256)": {
        "details": "See {IERC721-getApproved}."
      },
      "isApprovedForAll(address,address)": {
        "details": "See {IERC721-isApprovedForAll}."
      },
      "mint(string)": {
        "details": "mints a book with a unique a id",
        "params": {
          "_tokenURI": "the URI of the books image"
        }
      },
      "name()": {
        "details": "See {IERC721Metadata-name}."
      },
      "owner()": {
        "details": "Returns the address of the current owner."
      },
      "ownerOf(uint256)": {
        "details": "See {IERC721-ownerOf}."
      },
      "renounceOwnership()": {
        "details": "Leaves the contract without owner. It will not be possible to call `onlyOwner` functions anymore. Can only be called by the current owner. NOTE: Renouncing ownership will leave the contract without an owner, thereby removing any functionality that is only available to the owner."
      },
      "safeTransferFrom(address,address,uint256)": {
        "details": "See {IERC721-safeTransferFrom}."
      },
      "safeTransferFrom(address,address,uint256,bytes)": {
        "details": "See {IERC721-safeTransferFrom}."
      },
      "setApprovalForAll(address,bool)": {
        "details": "See {IERC721-setApprovalForAll}."
      },
      "setBaseURI(string)": {
        "details": "can only be called by the contract's owner    ",
        "params": {
          "_baseURI": "the new _baseURI"
        }
      },
      "supportsInterface(bytes4)": {
        "details": "See {IERC165-supportsInterface}. Time complexity O(1), guaranteed to always use less than 30 000 gas."
      },
      "symbol()": {
        "details": "See {IERC721Metadata-symbol}."
      },
      "tokenByIndex(uint256)": {
        "details": "See {IERC721Enumerable-tokenByIndex}."
      },
      "tokenOfOwnerByIndex(address,uint256)": {
        "details": "See {IERC721Enumerable-tokenOfOwnerByIndex}."
      },
      "tokenURI(uint256)": {
        "details": "See {IERC721Metadata-tokenURI}."
      },
      "totalSupply()": {
        "details": "See {IERC721Enumerable-totalSupply}."
      },
      "transferFrom(address,address,uint256)": {
        "details": "See {IERC721-transferFrom}."
      },
      "transferOwnership(address)": {
        "details": "Transfers ownership of the contract to a new account (`newOwner`). Can only be called by the current owner."
      }
    },
    "title": "A storage for book rights",
    "version": 1
  },
  "userdoc": {
    "kind": "user",
    "methods": {
      "burn(uint256)": {
        "notice": "Destroys a book"
      },
      "constructor": "Initializes the contract",
      "exists(uint256)": {
        "notice": "Used to check if a book  with an id exists"
      },
      "mint(string)": {
        "notice": "Creates a new book "
      },
      "setBaseURI(string)": {
        "notice": "Changes the _baseURI to one supplied"
      }
    },
    "notice": "This contract is used to mint the rights to a book  in form of a token which can then be sold on a marketplace",
    "version": 1
  }
}